:020000021000EC
:10C0000000000120F1060400190704001B070400CA
:10C010001D0704001F0704002107040000000000A2
:10C0200000000000000000000000000023070400E2
:10C03000250704000000000027070400290704006A
:10C040002B0704002B070400411104002B070400F8
:10C0500045FA03002B0704002B0704002B070400FC
:10C060002B0704002B0704002B0704002B070400F8
:10C070002B0704002B0704002B0704002B070400E8
:10C080002B070400A90704002B0704002B0704005A
:10C090002B0704002B0704002B0704002B070400C8
:10C0A0002B0704002B0704002B0704002B070400B8
:10C0B0002B0704002B070400000000000000000014
:10C0C0002B0704002B0704002B0704002B07040098
:10C0D0002B0704002B0704002B07040000000000BE
:10C0E0000000000000000000000000000000000050
:10C0F0000000000000000000000000000000000040
:10C10000000000000000000000000000000000002F
:10C11000000000000000000000000000000000001F
:10C40000044B05481B1A062B02D9044B03B11847ED
:10C41000704700BF6B210020682100200000000051
:10C4200005490648091A891001EBD171491002D05B
:10C43000034B03B118477047682100206821002092
:10C440000000000010B5064C237843B9FFF7D8FF71
:10C45000044B13B10448AFF300800123237010BDD7
:10C4600068210020000000001C57040008B5084B9C
:10C470001BB108490848AFF300800848036813B9A6
:10C48000BDE80840CCE7064B002BF9D09847F7E70A
:10C49000000000006C2100201C57040064210020D3
:10C4A00000000000154B002B08BF134B9D46A3F561
:10C4B000803A00218B460F461348144A121A25F081
:10C4C000FFFC0F4B002B00D098470E4B002B00D0E9
:10C4D00098470020002104000D000D48002802D0DC
:10C4E0000C48AFF3008025F09BFC2000290024F0CD
:10C4F0001BFF25F06FFC00BF0000080000000120BA
:10C50000000000000000000068210020BC71002035
:10C5100000000000000000003BDF70473CDF704778
:10C5200012DF704707B50DF10700FFF7F9FF9DF81F
:10C530000730012B02D1FFF7F1FF04E04FF08043F9
:10C540000122C3F8002503B05DF804FB07B50DF127
:10C550000700FFF7E5FF9DF80730012B03D100200E
:10C56000FFF7DAFF03E04FF0804301229A6703B040
:10C570005DF804FB07B50DF10700FFF7D1FF9DF84B
:10C580000700012802D1FFF7C7FF03E04FF0804307
:10C590000122DA6703B05DF804FB0000022910B540
:10C5A00004460CD0032913D001291AD10D490E4895
:10C5B00024F026FB2046BDE81040FFF7B3BF0B492F
:10C5C000094824F01DFB2046BDE81040FFF7D2BF0C
:10C5D0000749054824F014FB2046BDE81040FFF74A
:10C5E000B5BF10BD74490400487100207E490400A5
:10C5F000884904004FF08053186970474FF080530A
:10C600005869704708037047024AD2F80034002B7B
:10C61000FBD0704700E001402DE9F0418F1821F474
:10C6200080518F42054620D9114B0222D3F8048550
:10C63000C3F804251C468F4228460D4E06D9FFF745
:10C64000E3FFC4F8081501F58051F4E7FFF7DCFFBC
:10C6500000232846C6F80435FFF7D6FFC6F8048540
:10C660002846BDE8F041FFF7CFBFBDE8F08100BF2D
:10C6700000E001400B68934270B516460FD0084D9C
:10C680000123C5F80435FFF7BFFF0E60FFF7BCFFBD
:10C690000023C5F80435BDE87040FFF7B5BF70BD95
:10C6A00000E0014070B505460C468E18B44206D035
:10C6B0002178284621F080F904F8010BF6E770BDD7
:10C6C000014A0260416070475C700020704770B59D
:10C6D000044615460E464068002124F041F904F155
:10C6E00008012068267265720222FFF7DBFF60688E
:10C6F0000121BDE8704024F033B938B504460D4639
:10C700004068002124F02CF9214665F07F0501F8EE
:10C71000085F02222068FFF7C5FF6068012124F04E
:10C720001FF9607A38BD10B504460121406824F035
:10C73000F5F80121606824F013F9206821F026F94A
:10C740000F212046FFF7D9FF032819D141221A21D2
:10C750002046FFF7BCFF02221F212046FFF7B7FF4C
:10C76000D8221C212046FFF7B2FF012227212046B4
:10C77000FFF7ADFF2046C1221B21FFF7A8FF0020D5
:10C7800010BD000070B54D00E91C0646FFF7B5FF6F
:10C79000A91C04463046FFF7B0FF40EA042000B26F
:10C7A00024F048FF0022044B24F0AAFF25F08AFA67
:10C7B00000EE100A70BD00BF0000103F2922427039
:10C7C00000228270C270828082717047034600220C
:10C7D00080799A7170470000F8B50C4C0E460546FA
:10C7E00041782046174623F06EF8310A204622F0A1
:10C7F00087FFF1B2204622F083FF3946204622F01F
:10C800007FFF204623F0C6F82870F8BD8470002012
:10C81000F8B50E4C0F46054641782046164623F0E3
:10C8200052F8390A204622F06BFFF9B2204622F076
:10C8300067FF310A204622F063FFF1B2204622F062
:10C840005FFF204623F0A6F82870F8BD8470002012
:10C8500070B5104C05460E464178204623F033F85B
:10C86000310A204622F04CFFF1B2204622F048FF68
:10C87000204623F08FF8697828700122204623F0A3
:10C880001FF8204622F04EFF0546204623F082F88E
:10C89000E8B270BD84700020154B10B5044633F823
:10C8A000112081709621FFF7B3FFA378E278B2FBE5
:10C8B000F3F220462421FFF78FFFA37820462121A1
:10C8C000142292FBF3F2FFF787FF2D212046FFF79A
:10C8D000BFFFA27820F00100012A14BF024640F0F9
:10C8E0000102D2B220462D21BDE81040FFF774BFEF
:10C8F0009A4904004B1E022B01D8FFF7CDBF7047A9
:10C9000010B5262204464FF48571FFF765FF2046D7
:10C9100046223F21FFF760FF2046FF223121FFF72B
:10C920005BFF204663224021FFF772FF2046012271
:10C930002E21FFF751FF204609221B21FFF74CFF54
:10C94000204631223E21FFF747FF204624221421B2
:10C95000FFF742FF204631221C21FFF73DFF204612
:10C9600040F2A3210022FFF737FF20460121BDE856
:10C970001040FFF791BF38B5044623F0D7FE85B2CB
:10C980004F212046FFF764FF43070DD4A388002BF7
:10C99000F6D023F0CBFEA38880B2401B9842EFDD97
:10C9A0000123A371FF2038BD62212046FFF750FF0D
:10C9B0000122054615212046FFF70EFF284638BD07
:10C9C00010B5012204461821FFF706FF2046BDE8F6
:10C9D0001040FFF7D0BF000070B5134C05460E465F
:10C9E0004178204622F06FFF310A204622F088FE6F
:10C9F000F1B2204622F084FE204622F0CBFF697877
:10CA000028700222204622F05BFF204622F08AFE98
:10CA10000546204622F086FE40EA052085B22046E3
:10CA200022F0B8FF284670BD8470002038B524215C
:10CA30000446FFF70DFF1621E0702046FFF708FFC0
:10CA40000128054640F0A880A070024640F2072168
:10CA50002046FFF7C1FE2A4620464FF40271FFF739
:10CA6000BBFE204600229621FFF7B6FE2046FD229F
:10CA70009721FFF7B1FE20460022E321FFF7ACFE2D
:10CA800020460422E421FFF7A7FE20460222E521EA
:10CA9000FFF7A2FE2A462046E621FFF79DFE20462C
:10CAA0000322E721FFF798FE20460222F521FFF737
:10CAB00093FE20460522D921FFF78EFE2046CE2286
:10CAC000DB21FFF789FE20460322DC21FFF784FEED
:10CAD0002046F822DD21FFF77FFE204600229F211D
:10CAE000FFF77AFE20463C22A321FFF775FE204681
:10CAF0000022B721FFF770FE20463C22BB21FFF742
:10CB00006BFE20460922B221FFF766FE204609226D
:10CB1000CA21FFF761FE2A4620464FF4CC71FFF789
:10CB20005BFE204617224FF4D871FFF755FE2046D2
:10CB3000002240F2AD11FFF74FFE20460522FF21F3
:10CB4000FFF74AFE204605224FF48071FFF744FEAE
:10CB50002046052240F29911FFF73EFE20461B2297
:10CB60004FF4D371FFF738FE20463E224FF4D671C2
:10CB7000FFF732FE20461F2240F2A711FFF72CFEDE
:10CB8000204600223021FFF727FE204600221621F2
:10CB9000BDE83840FFF720BE96212046FFF71CFF76
:10CBA000542801D1032303E07F280CBF0223012373
:10CBB000A370E278A37812FB03F3E37038BD74DF4F
:10CBC000704700000C4A002310B513700B4A136025
:10CBD0000B4B1B78044653B10A490B4823F0FCFF6A
:10CBE000204620F065FF0146074824F009F805209B
:10CBF000BDE8104023F0CABD9D2100204024002044
:10CC000098200020A24904004871002038B50B4C40
:10CC10000B490546204623F0E3FF10222946204613
:10CC200024F026F80749204623F0DAFF2968204639
:10CC30001022BDE8384024F027B800BF487100201A
:10CC4000C0490400D3490400F0B52DED028B00214A
:10CC500083B04D484D4CFFF795FDB2EE048A20EEAF
:10CC6000080A0121484884ED000AFFF78BFD20EEF9
:10CC7000080A0221444884ED010AFFF783FD20EEF3
:10CC8000088A206884ED028A24F0E6FCD4ED018A4B
:10CC900068EE087A0446E8EEA87A0D4617EE900A88
:10CCA00024F0DAFC41EC100B22F06AFFB0EE401ADF
:10CCB000F0EE601A45EC104B22F0DCFE2EA3D3E917
:10CCC000002351EC100B24F01BFD314D314CF1EEE3
:10CCD000487AC5E9000117EE900A24F0BDFCF1EE98
:10CCE000687ACDE9000117EE900A24F0B5FC9DEDBD
:10CCF000001B41EC100B22F0BDFE1FA3D3E9002363
:10CD000051EC100B24F0FCFC002206460F46224B8F
:10CD1000D5E9000124F042FB0022C5E900011F4BC8
:10CD20003046394624F05EFFB8B115A3D3E900239D
:10CD30003046394624F032FB0022194B06460F4696
:10CD400024F06EFF10B9C4E900670EE00022144B16
:10CD50003046394624F020FB05E00022114B3046D6
:10CD6000394624F01BFBC4E9000103B0BDEC028B83
:10CD7000F0BD00BFAFF3008046DF617EDCA54C4014
:10CD80000000000000207C4044220020A42100205C
:10CD9000F04D00201022002000806640008056C028
:10CDA00000807640008056402DE9F047E14B2DEDA4
:10CDB000048BD3ED017AD3ED008A93ED027AF4EE81
:10CDC000E78AF1EE10FA54BFF0EE676AF0EE686A97
:10CDD000F4EEC76AF1EE10FA09D5F4EEE78AF1EE47
:10CDE00010FA54BFB0EE676AB0EE686A01E0B0EEC8
:10CDF000476AD3ED036AB4EEE66AF1EE10FA10D595
:10CE0000F4EEE78AF1EE10FA54BFB0EE676AB0EEC6
:10CE1000686AB4EEC76AF1EE10FA04D4B0EE476A5D
:10CE200001E0B0EE666AC44BD3ED005AB4EEE56A99
:10CE3000F1EE10FA2AD5F4EEE78AF1EE10FA54BFBB
:10CE4000B0EE676AB0EE686AB4EEC76AF1EE10FA47
:10CE500058BFB0EE476AB4EEE66AF1EE10FA18D5A4
:10CE6000F4EEE78AF1EE10FA54BFF0EE676AF0EEE6
:10CE7000686AF4EEC76AF1EE10FA0DD5F4EEE78AAF
:10CE8000F1EE10FA58BFF0EE678A07E0F0EE658A1F
:10CE900004E0F0EE668A01E0F0EE478AA74C94EDDC
:10CEA000008AD4ED017A94ED027AB4EEE78AF1EECD
:10CEB00010FAD4BFF0EE676AF0EE486AF4EEC76A83
:10CEC000F1EE10FA09DDB4EEE78AF1EE10FAD4BF04
:10CED000B0EE676AB0EE486A01E0B0EE476AD4EDA2
:10CEE000036AB4EEE66AF1EE10FA17DDB4EEE78AF3
:10CEF000F1EE10FAD4BFB0EE676AB0EE486AB4EE55
:10CF0000C76AF1EE10FA0CDDB4EEE78AF1EE10FA22
:10CF1000D4BFF0EE675AF0EE485A04E0F0EE665ADD
:10CF200001E0F0EE475A94ED046AF4EEC65AF1EED1
:10CF300010FA2CDDB4EEE78AF1EE10FAD4BFF0EE71
:10CF4000675AF0EE485AF4EEC75AF1EE10FAD8BF1D
:10CF5000F0EE475AF4EEE65AF1EE10FA1ADDB4EEAE
:10CF6000E78AF1EE10FAD4BFF0EE675AF0EE485AB5
:10CF7000F4EEC75AF1EE10FA0FDDB4EEE78AF1EEE7
:10CF800010FAD4BFB0EE675AB0EE485A07E0B0EEE0
:10CF9000465A04E0B0EE665A01E0B0EE475AD4EDCE
:10CFA000055AB4EEE55AF1EE10FA59DDB4EEE78A0F
:10CFB000F1EE10FAD4BFB0EE675AB0EE485AB4EEB4
:10CFC000C75AF1EE10FAD8BFB0EE475AB4EEE65A9F
:10CFD000F1EE10FA10DDB4EEE78AF1EE10FAD4BFEC
:10CFE000B0EE675AB0EE485AB4EEC75AF1EE10FAF6
:10CFF00004DCB0EE475A01E0B0EE665AB4EEC65A11
:10D00000F1EE10FA2FDDB4EEE78AF1EE10FAD4BF9C
:10D01000B0EE675AB0EE485AB4EEC75AF1EE10FAC5
:10D02000D8BFB0EE475AB4EEE65AF1EE10FA1DDD65
:10D03000B4EEE78AF1EE10FAD4BFB0EE675AB0EE64
:10D04000485AB4EEC75AF1EE10FA12DDB4EEE78A90
:10D05000F1EE10FAD4BFF0EE674AF0EE484A0AE06B
:10D06000F0EE654A07E0F0EE464A04E0F0EE664A6C
:10D0700001E0F0EE474A94ED065AF4EEC54AF1EEAF
:10D0800010FA40F3B780B4EEE78AF1EE10FAD4BF9D
:10D09000F0EE674AF0EE484AF4EEC74AF1EE10FAB5
:10D0A000D8BFF0EE474AF4EEE64AF1EE10FA10DD92
:10D0B000B4EEE78AF1EE10FAD4BFF0EE674AF0EE74
:10D0C000484AF4EEC74AF1EE10FA04DCF0EE474AA3
:10D0D00001E0F0EE664AF4EEC64AF1EE10FA25DD04
:10D0E000B4EEE78AF1EE10FAD4BFF0EE674AF0EE44
:10D0F000484AF4EEC74AF1EE10FAD8BFF0EE474ABC
:10D10000F4EEE64AF1EE10FA1ADDB4EEE78AF1EE3B
:10D1100010FAD4BFF0EE674AF0EE484AF4EEC74A80
:10D12000F1EE10FA0EDCF0EE474A0BE0F0EE464A64
:10D1300008E000BF3422002014460020F84D0020F3
:10D14000F0EE664AF4EEE54AF1EE10FA55DDB4EE83
:10D15000E78AF1EE10FAD4BFF0EE674AF0EE484AE3
:10D16000F4EEC74AF1EE10FAD8BFF0EE474AF4EEFB
:10D17000E64AF1EE10FA10DDB4EEE78AF1EE10FAAD
:10D18000D4BFF0EE674AF0EE484AF4EEC74AF1EE3B
:10D1900010FA04DCF0EE474A01E0F0EE664AF4EEE5
:10D1A000C64AF1EE10FA2BDDB4EEE78AF1EE10FA82
:10D1B000D4BFF0EE674AF0EE484AF4EEC74AF1EE0B
:10D1C00010FAD8BFF0EE474AF4EEE64AF1EE10FA54
:10D1D00019DDB4EEE78AF1EE10FAD4BFF0EE674A3B
:10D1E000F0EE484AF4EEC74AF1EE10FA0DDCF0EE2C
:10D1F000474A0AE0F0EE454A07E0F0EE654A04E0EF
:10D20000F0EE464A01E0F0EE664A94ED074AF4EE8D
:10D21000C44AF1EE10FA40F36E81B4EEE78AF1EE03
:10D2200010FAD4BFF0EE674AF0EE484AF4EEC74A6F
:10D23000F1EE10FAD8BFF0EE474AF4EEE64AF1EE0E
:10D2400010FA10DDB4EEE78AF1EE10FAD4BFF0EE7A
:10D25000674AF0EE484AF4EEC74AF1EE10FA04DCF1
:10D26000F0EE474A01E0F0EE664AF4EEC64AF1EE0F
:10D2700010FA25DDB4EEE78AF1EE10FAD4BFF0EE35
:10D28000674AF0EE484AF4EEC74AF1EE10FAD8BF0A
:10D29000F0EE474AF4EEE64AF1EE10FA13DDB4EE92
:10D2A000E78AF1EE10FAD4BFF0EE674AF0EE484A92
:10D2B000F4EEC74AF1EE10FA07DCF0EE474A04E05C
:10D2C000F0EE464A01E0F0EE664AF4EEE54AF1EE91
:10D2D00010FA52DDB4EEE78AF1EE10FAD4BFF0EEA8
:10D2E000674AF0EE484AF4EEC74AF1EE10FAD8BFAA
:10D2F000F0EE474AF4EEE64AF1EE10FA10DDB4EE35
:10D30000E78AF1EE10FAD4BFF0EE674AF0EE484A31
:10D31000F4EEC74AF1EE10FA04DCF0EE474A01E001
:10D32000F0EE664AF4EEC64AF1EE10FA28DDB4EEED
:10D33000E78AF1EE10FAD4BFF0EE674AF0EE484A01
:10D34000F4EEC74AF1EE10FAD8BFF0EE474AF4EE19
:10D35000E64AF1EE10FA16DDB4EEE78AF1EE10FAC5
:10D36000D4BFF0EE674AF0EE484AF4EEC74AF1EE59
:10D3700010FA0ADCF0EE474A07E0F0EE654A04E0F6
:10D38000F0EE464A01E0F0EE664AF4EEC54AF1EEF0
:10D3900010FA40F3B380B4EEE78AF1EE10FAD4BF8E
:10D3A000F0EE674AF0EE484AF4EEC74AF1EE10FAA2
:10D3B000D8BFF0EE474AF4EEE64AF1EE10FA10DD7F
:10D3C000B4EEE78AF1EE10FAD4BFF0EE674AF0EE61
:10D3D000484AF4EEC74AF1EE10FA04DCF0EE474A90
:10D3E00001E0F0EE664AF4EEC64AF1EE10FA25DDF1
:10D3F000B4EEE78AF1EE10FAD4BFF0EE674AF0EE31
:10D40000484AF4EEC74AF1EE10FAD8BFF0EE474AA8
:10D41000F4EEE64AF1EE10FA13DDB4EEE78AF1EE2F
:10D4200010FAD4BFF0EE674AF0EE484AF4EEC74A6D
:10D43000F1EE10FA07DCF0EE474A04E0F0EE464A5F
:10D4400001E0F0EE664AF4EEE54AF1EE10FA58DD3E
:10D45000B4EEE78AF1EE10FAD4BFF0EE674AF0EED0
:10D46000484AF4EEC74AF1EE10FAD8BFF0EE474A48
:10D47000F4EEE64AF1EE10FA10DDB4EEE78AF1EED2
:10D4800010FAD4BFF0EE674AF0EE484AF4EEC74A0D
:10D49000F1EE10FA04DCF0EE474A01E0F0EE664AE5
:10D4A000F4EEC64AF1EE10FA2EDDB4EEE78AF1EEA4
:10D4B00010FAD4BFF0EE674AF0EE484AF4EEC74ADD
:10D4C000F1EE10FAD8BFF0EE474AF4EEE64AF1EE7C
:10D4D00010FA1CDDB4EEE78AF1EE10FAD4BFF0EEDC
:10D4E000674AF0EE484AF4EEC74AF1EE10FA10DC53
:10D4F000F0EE474A0DE0F0EE444A0AE0F0EE454A0D
:10D5000007E0F0EE654A04E0F0EE464A01E0F0EE96
:10D51000664AD4ED083AF4EEE34AF1EE10FA40F32D
:10D52000ED82B4EEE78AF1EE10FAD4BFF0EE674A6E
:10D53000F0EE484AF4EEC74AF1EE10FAD8BFF0EE2A
:10D54000474AF4EEE64AF1EE10FA10DDB4EEE78A4F
:10D55000F1EE10FAD4BFF0EE674AF0EE484AF4EE6E
:10D56000C74AF1EE10FA04DCF0EE474A01E0F0EEB3
:10D57000664AF4EEC64AF1EE10FA25DDB4EEE78A0B
:10D58000F1EE10FAD4BFF0EE674AF0EE484AF4EE3E
:10D59000C74AF1EE10FAD8BFF0EE474AF4EEE64A79
:10D5A000F1EE10FA13DDB4EEE78AF1EE10FAD4BF13
:10D5B000F0EE674AF0EE484AF4EEC74AF1EE10FA90
:10D5C00007DCF0EE474A04E0F0EE464A01E0F0EEF8
:10D5D000664AF4EEE54AF1EE10FA52DDB4EEE78A5F
:10D5E000F1EE10FAD4BFF0EE674AF0EE484AF4EEDE
:10D5F000C74AF1EE10FAD8BFF0EE474AF4EEE64A19
:10D60000F1EE10FA10DDB4EEE78AF1EE10FAD4BFB5
:10D61000F0EE674AF0EE484AF4EEC74AF1EE10FA2F
:10D6200004DCF0EE474A01E0F0EE664AF4EEC64A4A
:10D63000F1EE10FA28DDB4EEE78AF1EE10FAD4BF6D
:10D64000F0EE674AF0EE484AF4EEC74AF1EE10FAFF
:10D65000D8BFF0EE474AF4EEE64AF1EE10FA16DDD6
:10D66000B4EEE78AF1EE10FAD4BFF0EE674AF0EEBE
:10D67000484AF4EEC74AF1EE10FA0ADCF0EE474AE7
:10D6800007E0F0EE654A04E0F0EE464A01E0F0EE15
:10D69000664AF4EEC54AF1EE10FA40F3B080B4EEFB
:10D6A000E78AF1EE10FAD4BFF0EE674AF0EE484A8E
:10D6B000F4EEC74AF1EE10FAD8BFF0EE474AF4EEA6
:10D6C000E64AF1EE10FA10DDB4EEE78AF1EE10FA58
:10D6D000D4BFF0EE674AF0EE484AF4EEC74AF1EEE6
:10D6E00010FA04DCF0EE474A01E0F0EE664AF4EE90
:10D6F000C64AF1EE10FA25DDB4EEE78AF1EE10FA33
:10D70000D4BFF0EE674AF0EE484AF4EEC74AF1EEB5
:10D7100010FAD8BFF0EE474AF4EEE64AF1EE10FAFE
:10D7200013DDB4EEE78AF1EE10FAD4BFF0EE674AEB
:10D73000F0EE484AF4EEC74AF1EE10FA07DCF0EEDC
:10D74000474A04E0F0EE464A01E0F0EE664AF4EEA5
:10D75000E54AF1EE10FA55DDB4EEE78AF1EE10FA83
:10D76000D4BFF0EE674AF0EE484AF4EEC74AF1EE55
:10D7700010FAD8BFF0EE474AF4EEE64AF1EE10FA9E
:10D7800010DDB4EEE78AF1EE10FAD4BFF0EE674A8E
:10D79000F0EE484AF4EEC74AF1EE10FA04DCF0EE7F
:10D7A000474A01E0F0EE664AF4EEC64AF1EE10FA9E
:10D7B0002BDDB4EEE78AF1EE10FAD4BFF0EE674A43
:10D7C000F0EE484AF4EEC74AF1EE10FAD8BFF0EE98
:10D7D000474AF4EEE64AF1EE10FA19DDB4EEE78AB4
:10D7E000F1EE10FAD4BFF0EE674AF0EE484AF4EEDC
:10D7F000C74AF1EE10FA0DDCF0EE474A0AE0F0EE0F
:10D80000454A07E0F0EE654A04E0F0EE464A01E0E2
:10D81000F0EE664AF4EEC44AF1EE10FA40F371817C
:10D82000B4EEE78AF1EE10FAD4BFF0EE674AF0EEFC
:10D83000484AF4EEC74AF1EE10FAD8BFF0EE474A74
:10D84000F4EEE64AF1EE10FA10DDB4EEE78AF1EEFE
:10D8500010FAD4BFF0EE674AF0EE484AF4EEC74A39
:10D86000F1EE10FA04DCF0EE474A01E0F0EE664A11
:10D87000F4EEC64AF1EE10FA25DDB4EEE78AF1EED9
:10D8800010FAD4BFF0EE674AF0EE484AF4EEC74A09
:10D89000F1EE10FAD8BFF0EE474AF4EEE64AF1EEA8
:10D8A00010FA13DDB4EEE78AF1EE10FAD4BFF0EE11
:10D8B000674AF0EE484AF4EEC74AF1EE10FA07DC88
:10D8C000F0EE474A04E0F0EE464A01E0F0EE664A28
:10D8D000F4EEE54AF1EE10FA52DDB4EEE78AF1EE2D
:10D8E00010FAD4BFF0EE674AF0EE484AF4EEC74AA9
:10D8F000F1EE10FAD8BFF0EE474AF4EEE64AF1EE48
:10D9000010FA10DDB4EEE78AF1EE10FAD4BFF0EEB3
:10D91000674AF0EE484AF4EEC74AF1EE10FA04DC2A
:10D92000F0EE474A01E0F0EE664AF4EEC64AF1EE48
:10D9300010FA28DDB4EEE78AF1EE10FAD4BFF0EE6B
:10D94000674AF0EE484AF4EEC74AF1EE10FAD8BF43
:10D95000F0EE474AF4EEE64AF1EE10FA16DDB4EEC8
:10D96000E78AF1EE10FAD4BFF0EE674AF0EE484ACB
:10D97000F4EEC74AF1EE10FA0ADCF0EE474A07E08F
:10D98000F0EE654A04E0F0EE464A01E0F0EE664A49
:10D99000F4EEC54AF1EE10FA40F3B680B4EEE78A31
:10D9A000F1EE10FAD4BFF0EE674AF0EE484AF4EE1A
:10D9B000C74AF1EE10FAD8BFF0EE474AF4EEE64A55
:10D9C000F1EE10FA10DDB4EEE78AF1EE10FAD4BFF2
:10D9D000F0EE674AF0EE484AF4EEC74AF1EE10FA6C
:10D9E00004DCF0EE474A01E0F0EE664AF4EEC64A87
:10D9F000F1EE10FA25DDB4EEE78AF1EE10FAD4BFAD
:10DA0000F0EE674AF0EE484AF4EEC74AF1EE10FA3B
:10DA1000D8BFF0EE474AF4EEE64AF1EE10FA13DD15
:10DA2000B4EEE78AF1EE10FAD4BFF0EE674AF0EEFA
:10DA3000484AF4EEC74AF1EE10FA07DCF0EE474A26
:10DA400004E0F0EE464A01E0F0EE664AF4EEE54A04
:10DA5000F1EE10FA5BDDB4EEE78AF1EE10FAD4BF16
:10DA6000F0EE674AF0EE484AF4EEC74AF1EE10FADB
:10DA7000D8BFF0EE474AF4EEE64AF1EE10FA10DDB8
:10DA8000B4EEE78AF1EE10FAD4BFF0EE674AF0EE9A
:10DA9000484AF4EEC74AF1EE10FA04DCF0EE474AC9
:10DAA00001E0F0EE664AF4EEC64AF1EE10FA31DD1E
:10DAB000B4EEE78AF1EE10FAD4BFF0EE674AF0EE6A
:10DAC000484AF4EEC74AF1EE10FAD8BFF0EE474AE2
:10DAD000F4EEE64AF1EE10FA1FDDB4EEE78AF1EE5D
:10DAE00010FAD4BFF0EE674AF0EE484AF4EEC74AA7
:10DAF000F1EE10FA13DCF0EE474A10E0F0EE634A64
:10DB00000DE0F0EE444A0AE0F0EE454A07E0F0EEA0
:10DB1000654A04E0F0EE464A01E0F0EE664A94ED14
:10DB2000093AF4EEC34AF1EE10FA40F3F385B4EE8D
:10DB3000E78AF1EE10FAD4BFF0EE674AF0EE484AF9
:10DB4000F4EEC74AF1EE10FAD8BFF0EE474AF4EE11
:10DB5000E64AF1EE10FA10DDB4EEE78AF1EE10FAC3
:10DB6000D4BFF0EE674AF0EE484AF4EEC74AF1EE51
:10DB700010FA04DCF0EE474A01E0F0EE664AF4EEFB
:10DB8000C64AF1EE10FA25DDB4EEE78AF1EE10FA9E
:10DB9000D4BFF0EE674AF0EE484AF4EEC74AF1EE21
:10DBA00010FAD8BFF0EE474AF4EEE64AF1EE10FA6A
:10DBB00013DDB4EEE78AF1EE10FAD4BFF0EE674A57
:10DBC000F0EE484AF4EEC74AF1EE10FA07DCF0EE48
:10DBD000474A04E0F0EE464A01E0F0EE664AF4EE11
:10DBE000E54AF1EE10FA52DDB4EEE78AF1EE10FAF2
:10DBF000D4BFF0EE674AF0EE484AF4EEC74AF1EEC1
:10DC000010FAD8BFF0EE474AF4EEE64AF1EE10FA09
:10DC100010DDB4EEE78AF1EE10FAD4BFF0EE674AF9
:10DC2000F0EE484AF4EEC74AF1EE10FA04DCF0EEEA
:10DC3000474A01E0F0EE664AF4EEC64AF1EE10FA09
:10DC400028DDB4EEE78AF1EE10FAD4BFF0EE674AB1
:10DC5000F0EE484AF4EEC74AF1EE10FAD8BFF0EE03
:10DC6000474AF4EEE64AF1EE10FA16DDB4EEE78A22
:10DC7000F1EE10FAD4BFF0EE674AF0EE484AF4EE47
:10DC8000C74AF1EE10FA0ADCF0EE474A07E0F0EE80
:10DC9000654A04E0F0EE464A01E0F0EE664AF4EE32
:10DCA000C54AF1EE10FA40F3B080B4EEE78AF1EE27
:10DCB00010FAD4BFF0EE674AF0EE484AF4EEC74AD5
:10DCC000F1EE10FAD8BFF0EE474AF4EEE64AF1EE74
:10DCD00010FA10DDB4EEE78AF1EE10FAD4BFF0EEE0
:10DCE000674AF0EE484AF4EEC74AF1EE10FA04DC57
:10DCF000F0EE474A01E0F0EE664AF4EEC64AF1EE75
:10DD000010FA25DDB4EEE78AF1EE10FAD4BFF0EE9A
:10DD1000674AF0EE484AF4EEC74AF1EE10FAD8BF6F
:10DD2000F0EE474AF4EEE64AF1EE10FA13DDB4EEF7
:10DD3000E78AF1EE10FAD4BFF0EE674AF0EE484AF7
:10DD4000F4EEC74AF1EE10FA07DCF0EE474A04E0C1
:10DD5000F0EE464A01E0F0EE664AF4EEE54AF1EEF6
:10DD600010FA55DDB4EEE78AF1EE10FAD4BFF0EE0A
:10DD7000674AF0EE484AF4EEC74AF1EE10FAD8BF0F
:10DD8000F0EE474AF4EEE64AF1EE10FA10DDB4EE9A
:10DD9000E78AF1EE10FAD4BFF0EE674AF0EE484A97
:10DDA000F4EEC74AF1EE10FA04DCF0EE474A01E067
:10DDB000F0EE664AF4EEC64AF1EE10FA2BDDB4EE50
:10DDC000E78AF1EE10FAD4BFF0EE674AF0EE484A67
:10DDD000F4EEC74AF1EE10FAD8BFF0EE474AF4EE7F
:10DDE000E64AF1EE10FA19DDB4EEE78AF1EE10FA28
:10DDF000D4BFF0EE674AF0EE484AF4EEC74AF1EEBF
:10DE000010FA0DDCF0EE474A0AE0F0EE454A07E072
:10DE1000F0EE654A04E0F0EE464A01E0F0EE664AB4
:10DE2000F4EEC44AF1EE10FA40F36E81B4EEE78AE4
:10DE3000F1EE10FAD4BFF0EE674AF0EE484AF4EE85
:10DE4000C74AF1EE10FAD8BFF0EE474AF4EEE64AC0
:10DE5000F1EE10FA10DDB4EEE78AF1EE10FAD4BF5D
:10DE6000F0EE674AF0EE484AF4EEC74AF1EE10FAD7
:10DE700004DCF0EE474A01E0F0EE664AF4EEC64AF2
:10DE8000F1EE10FA25DDB4EEE78AF1EE10FAD4BF18
:10DE9000F0EE674AF0EE484AF4EEC74AF1EE10FAA7
:10DEA000D8BFF0EE474AF4EEE64AF1EE10FA13DD81
:10DEB000B4EEE78AF1EE10FAD4BFF0EE674AF0EE66
:10DEC000484AF4EEC74AF1EE10FA07DCF0EE474A92
:10DED00004E0F0EE464A01E0F0EE664AF4EEE54A70
:10DEE000F1EE10FA52DDB4EEE78AF1EE10FAD4BF8B
:10DEF000F0EE674AF0EE484AF4EEC74AF1EE10FA47
:10DF0000D8BFF0EE474AF4EEE64AF1EE10FA10DD23
:10DF1000B4EEE78AF1EE10FAD4BFF0EE674AF0EE05
:10DF2000484AF4EEC74AF1EE10FA04DCF0EE474A34
:10DF300001E0F0EE664AF4EEC64AF1EE10FA28DD92
:10DF4000B4EEE78AF1EE10FAD4BFF0EE674AF0EED5
:10DF5000484AF4EEC74AF1EE10FAD8BFF0EE474A4D
:10DF6000F4EEE64AF1EE10FA16DDB4EEE78AF1EED1
:10DF700010FAD4BFF0EE674AF0EE484AF4EEC74A12
:10DF8000F1EE10FA0ADCF0EE474A07E0F0EE654ADF
:10DF900004E0F0EE464A01E0F0EE664AF4EEC54ACF
:10DFA000F1EE10FA40F3B380B4EEE78AF1EE10FA26
:10DFB000D4BFF0EE674AF0EE484AF4EEC74AF1EEFD
:10DFC00010FAD8BFF0EE474AF4EEE64AF1EE10FA46
:10DFD00010DDB4EEE78AF1EE10FAD4BFF0EE674A36
:10DFE000F0EE484AF4EEC74AF1EE10FA04DCF0EE27
:10DFF000474A01E0F0EE664AF4EEC64AF1EE10FA46
:10E0000025DDB4EEE78AF1EE10FAD4BFF0EE674AF0
:10E01000F0EE484AF4EEC74AF1EE10FAD8BFF0EE3F
:10E02000474AF4EEE64AF1EE10FA13DDB4EEE78A61
:10E03000F1EE10FAD4BFF0EE674AF0EE484AF4EE83
:10E04000C74AF1EE10FA07DCF0EE474A04E0F0EEC2
:10E05000464A01E0F0EE664AF4EEE54AF1EE10FAC7
:10E0600058DDB4EEE78AF1EE10FAD4BFF0EE674A5D
:10E07000F0EE484AF4EEC74AF1EE10FAD8BFF0EEDF
:10E08000474AF4EEE64AF1EE10FA10DDB4EEE78A04
:10E09000F1EE10FAD4BFF0EE674AF0EE484AF4EE23
:10E0A000C74AF1EE10FA04DCF0EE474A01E0F0EE68
:10E0B000664AF4EEC64AF1EE10FA2EDDB4EEE78AB7
:10E0C000F1EE10FAD4BFF0EE674AF0EE484AF4EEF3
:10E0D000C74AF1EE10FAD8BFF0EE474AF4EEE64A2E
:10E0E000F1EE10FA1CDDB4EEE78AF1EE10FAD4BFBF
:10E0F000F0EE674AF0EE484AF4EEC74AF1EE10FA45
:10E1000010DCF0EE474A0DE0F0EE444A0AE0F0EE93
:10E11000454A07E0F0EE654A04E0F0EE464A01E0C9
:10E12000F0EE664AF4EEE34AF1EE10FA40F3F582BF
:10E13000B4EEE78AF1EE10FAD4BFF0EE674AF0EEE3
:10E14000484AF4EEC74AF1EE10FAD8BFF0EE474A5B
:10E15000F4EEE64AF1EE10FA10DDB4EEE78AF1EEE5
:10E1600010FAD4BFF0EE674AF0EE484AF4EEC74A20
:10E17000F1EE10FA04DCF0EE474A01E0F0EE664AF8
:10E18000F4EEC64AF1EE10FA25DDB4EEE78AF1EEC0
:10E1900010FAD4BFF0EE674AF0EE484AF4EEC74AF0
:10E1A000F1EE10FAD8BFF0EE474AF4EEE64AF1EE8F
:10E1B00010FA13DDB4EEE78AF1EE10FAD4BFF0EEF8
:10E1C000674AF0EE484AF4EEC74AF1EE10FA07DC6F
:10E1D000F0EE474A04E0F0EE464A01E0F0EE664A0F
:10E1E000F4EEE54AF1EE10FA52DDB4EEE78AF1EE14
:10E1F00010FAD4BFF0EE674AF0EE484AF4EEC74A90
:10E20000F1EE10FAD8BFF0EE474AF4EEE64AF1EE2E
:10E2100010FA10DDB4EEE78AF1EE10FAD4BFF0EE9A
:10E22000674AF0EE484AF4EEC74AF1EE10FA04DC11
:10E23000F0EE474A01E0F0EE664AF4EEC64AF1EE2F
:10E2400010FA28DDB4EEE78AF1EE10FAD4BFF0EE52
:10E25000674AF0EE484AF4EEC74AF1EE10FAD8BF2A
:10E26000F0EE474AF4EEE64AF1EE10FA16DDB4EEAF
:10E27000E78AF1EE10FAD4BFF0EE674AF0EE484AB2
:10E28000F4EEC74AF1EE10FA0ADCF0EE474A07E076
:10E29000F0EE654A04E0F0EE464A01E0F0EE664A30
:10E2A000F4EEC54AF1EE10FA40F3B080B4EEE78A1E
:10E2B000F1EE10FAD4BFF0EE674AF0EE484AF4EE01
:10E2C000C74AF1EE10FAD8BFF0EE474AF4EEE64A3C
:10E2D000F1EE10FA10DDB4EEE78AF1EE10FAD4BFD9
:10E2E000F0EE674AF0EE484AF4EEC74AF1EE10FA53
:10E2F00004DCF0EE474A01E0F0EE664AF4EEC64A6E
:10E30000F1EE10FA25DDB4EEE78AF1EE10FAD4BF93
:10E31000F0EE674AF0EE484AF4EEC74AF1EE10FA22
:10E32000D8BFF0EE474AF4EEE64AF1EE10FA13DDFC
:10E33000B4EEE78AF1EE10FAD4BFF0EE674AF0EEE1
:10E34000484AF4EEC74AF1EE10FA07DCF0EE474A0D
:10E3500004E0F0EE464A01E0F0EE664AF4EEE54AEB
:10E36000F1EE10FA55DDB4EEE78AF1EE10FAD4BF03
:10E37000F0EE674AF0EE484AF4EEC74AF1EE10FAC2
:10E38000D8BFF0EE474AF4EEE64AF1EE10FA10DD9F
:10E39000B4EEE78AF1EE10FAD4BFF0EE674AF0EE81
:10E3A000484AF4EEC74AF1EE10FA04DCF0EE474AB0
:10E3B00001E0F0EE664AF4EEC64AF1EE10FA2BDD0B
:10E3C000B4EEE78AF1EE10FAD4BFF0EE674AF0EE51
:10E3D000484AF4EEC74AF1EE10FAD8BFF0EE474AC9
:10E3E000F4EEE64AF1EE10FA19DDB4EEE78AF1EE4A
:10E3F00010FAD4BFF0EE674AF0EE484AF4EEC74A8E
:10E40000F1EE10FA0DDCF0EE474A0AE0F0EE454A74
:10E4100007E0F0EE654A04E0F0EE464A01E0F0EE77
:10E42000664AF4EEC44AF1EE10FA40F37981B4EE94
:10E43000E78AF1EE10FAD4BFF0EE674AF0EE484AF0
:10E44000F4EEC74AF1EE10FAD8BFF0EE474AF4EE08
:10E45000E64AF1EE10FA10DDB4EEE78AF1EE10FABA
:10E46000D4BFF0EE674AF0EE484AF4EEC74AF1EE48
:10E4700010FA04DCF0EE474A01E0F0EE664AF4EEF2
:10E48000C64AF1EE10FA25DDB4EEE78AF1EE10FA95
:10E49000D4BFF0EE674AF0EE484AF4EEC74AF1EE18
:10E4A00010FAD8BFF0EE474AF4EEE64AF1EE10FA61
:10E4B00013DDB4EEE78AF1EE10FAD4BFF0EE674A4E
:10E4C000F0EE484AF4EEC74AF1EE10FA07DCF0EE3F
:10E4D000474A04E0F0EE464A01E0F0EE664AF4EE08
:10E4E000E54AF1EE10FA52DDB4EEE78AF1EE10FAE9
:10E4F000D4BFF0EE674AF0EE484AF4EEC74AF1EEB8
:10E5000010FAD8BFF0EE474AF4EEE64AF1EE10FA00
:10E5100010DDB4EEE78AF1EE10FAD4BFF0EE674AF0
:10E52000F0EE484AF4EEC74AF1EE10FA04DCF0EEE1
:10E53000474A01E0F0EE664AF4EEC64AF1EE10FA00
:10E5400028DDB4EEE78AF1EE10FAD4BFF0EE674AA8
:10E55000F0EE484AF4EEC74AF1EE10FAD8BFF0EEFA
:10E56000474AF4EEE64AF1EE10FA16DDB4EEE78A19
:10E57000F1EE10FAD4BFF0EE674AF0EE484AF4EE3E
:10E58000C74AF1EE10FA0ADCF0EE474A07E0F0EE77
:10E59000654A04E0F0EE464A01E0F0EE664AF4EE29
:10E5A000C54AF1EE10FA40F3BE80B4EEE78AF1EE10
:10E5B00010FAD4BFB0EE675AB0EE485AB4EEC75A5C
:10E5C000F1EE10FAD8BFB0EE475AB4EEE65AF1EECB
:10E5D00010FA10DDB4EEE78AF1EE10FAD4BFB0EE17
:10E5E000675AB0EE485AB4EEC75AF1EE10FA04DC9E
:10E5F000B0EE475A01E0B0EE665AB4EEC65AF1EEFC
:10E6000010FA25DDB4EEE78AF1EE10FAD4BFB0EED1
:10E61000675AB0EE485AB4EEC75AF1EE10FAD8BFB6
:10E62000B0EE475AB4EEE65AF1EE10FA13DDB4EE4E
:10E63000E78AF1EE10FAD4BFB0EE675AB0EE485A4E
:10E64000B4EEC75AF1EE10FA07DCB0EE475A04E018
:10E65000B0EE465A01E0B0EE665AB4EEE55AF1EE7D
:10E6600010FA63DDB4EEE78AF1EE10FAD4BFF0EEF3
:10E67000675AF0EE485AF4EEC75AF1EE10FAD8BFD6
:10E68000F0EE475AF4EEE65AF1EE10FA10DDB4EE71
:10E69000E78AF1EE10FAD4BFF0EE675AF0EE485A6E
:10E6A000F4EEC75AF1EE10FA04DCF0EE475A01E03E
:10E6B000F0EE665AF4EEC65AF1EE10FA39DDB4EE19
:10E6C000E78AF1EE10FAD4BFB0EE676AB0EE486A9E
:10E6D000B4EEC76AF1EE10FAD8BFB0EE476AB4EEF6
:10E6E000E66AF1EE10FA27DDB4EEE78AF1EE10FAF1
:10E6F000D4BFF0EE676AF0EE486AF4EEC76AF1EE56
:10E7000010FA1CDDB4EEE78AF1EE10FAD8BFB0EED5
:10E71000678A16E0B0EE438A13E0B0EE638A10E039
:10E72000B0EE448A0DE0B0EE458A0AE0B0EE658AAC
:10E7300007E0B0EE468A04E0B0EE668A01E0B0EE93
:10E74000478A554B1A789846DAB15449544822F012
:10E7500047FA18EE900A22F07FFF41EC100B0221DD
:10E760004F4822F067FB4F494D4822F039FA18EE26
:10E77000100A22F071FF41EC100B0221484822F0F0
:10E780005CFBDFF84091484E9FED489A4F460025CC
:10E79000B24698F8003063B14249414822F020FA6D
:10E7A000386822F059FF41EC100B02213C4822F05E
:10E7B00041FB21F0BBFF07EE900AB6EC017AF8EEC0
:10E7C000677A77EEC77AF4EEC97AF1EE10FA06DDD1
:10E7D000D7ED007AF4EEE78AF1EE10FA10D421F0CA
:10E7E000A5FF07EE900A16ED017AF8EE677A77EE4C
:10E7F000C77A9FED2F7AF4EEC77AF1EE10FA09DDB1
:10E80000C7ED008A21F092FF07EE900AF8EE677AD2
:10E8100046ED017AF7EC017AB4EE678AF1EE10FA70
:10E8200012D1F4EEE78AF1EE10FA0DD5AD002C44CA
:10E83000C4ED008A21F07AFF07EE900AF8EE677ABD
:10E840005544C5ED007A0CE09FED1A7AF4EEC77AD4
:10E85000F1EE10FA05F1010548BF47ED018A0A2DD6
:10E8600097D198F800301BB10E490D4822F0C8F935
:10E87000114BDFED127AB9EC017A994577EE877A80
:10E88000F9D1F2EE046A87EEA67ABDEC048B0C4B4C
:10E8900083ED007ABDE8F08798200020FD49040050
:10E8A000487100204C540400EC45002000803B459A
:10E8B00000C82F4700004842204E00200000000002
:10E8C00090210020F84D00202DE9F84F424B434C99
:10E8D000434D2DED048B93ED008A9FED429A04F198
:10E8E000100A4FF07E5BF5EC018AF4EEC88AF1EE77
:10E8F00010FA02D8C4F800B056E018EE100A22F060
:10E90000ABFE2DA3D3E9002306460F4623F088F97A
:10E9100038B1B4EEC98AF1EE10FA0AD40026324FAB
:10E9200013E025A3D3E900233046394623F078F9D4
:10E9300040B13046394600222C4B22F02DFD0646D0
:10E940000F4602E01EA7D7E9006718EE900A22F0F2
:10E9500083FE1DA3D3E900238046894623F060F996
:10E9600038B1F4EEC98AF1EE10FA0AD400221E4B37
:10E9700013E015A3D3E900234046494623F050F99C
:10E9800040B10022194B4046494622F005FD02469F
:10E990000B4602E00EA3D3E900233046394622F0AD
:10E9A000D9FF23F08FF92060043454459BD1BDEC8E
:10E9B000048BBDE8F88F00BF713D0AD7A38051409A
:10E9C0000020AE47E17A843FE17A14AE478151409E
:10E9D0000010AE47E17A943F9021002018220020D9
:10E9E000342200200000CA4200003F400080514015
:10E9F00038B51E4D2DED028B2846AC789FED1C8A54
:10EA0000FDF7DEFF10FB04F4A4B207EE904AF8EE27
:10EA1000677A78EE677AF5EEC07AF1EE10FA0DDDDE
:10EA20002846AC78FDF7CCFF10FB04F4A4B207EE47
:10EA3000904AF8EE677A78EE677A01E0DFED0D7ABA
:10EA40000D4B0A48C3ED007AFDF7C0FE50B10B4BE9
:10EA50001B783BB1BDEC028B09490A48BDE8384040
:10EA600022F0BEB8BDEC028B38BD00BF544E002072
:10EA700000007F4300000000E021002098200020DB
:10EA80001C4A04004871002038B51C2021F0A2FE69
:10EA9000962806D81C2021F09DFE962808D8002034
:10EAA0000DE01C2021F096FEC728F3D9642006E073
:10EAB0001C2021F08FFE00F1004096384000B84D38
:10EAC000B84C2860B849B94822F08AF8206822F08A
:10EAD000C3FD41EC100B0221B44822F0ABF9B4495C
:10EAE000B24822F07DF8B349B04822F079F8606866
:10EAF00022F0B2FD41EC100B0221AC4822F09AF951
:10EB0000AB49AA4822F06CF8AB49A84822F068F853
:10EB1000A06822F0A1FD41EC100B0221A34822F0D5
:10EB200089F9A349A14822F05BF8A4499F4822F043
:10EB300057F8E068A24C22F08FFD41EC100B022147
:10EB40009A4822F077F99A49984822F049F89D4965
:10EB5000964822F045F8206822F07EFD41EC100B2B
:10EB60000221924822F066F99149904822F038F843
:10EB700095498E4822F034F8606822F06DFD41EC32
:10EB8000100B0221894822F055F98949874822F063
:10EB900027F88E49854822F023F8A06822F05CFD12
:10EBA00041EC100B0221814822F044F980497F4852
:10EBB00022F016F886497D4822F012F8E068854C6C
:10EBC00022F04AFD41EC100B0221784822F032F984
:10EBD0007749764822F004F87F49744822F000F81B
:10EBE0007E4B186822F038FD41EC100B02216F4873
:10EBF00022F020F96E496D4821F0F2FF78496B4808
:10EC000021F0EEFF774B186822F026FD41EC100B47
:10EC10000221664822F00EF97349644821F0F0FFA2
:10EC20007249624821F0DCFF206822F015FD41ECBA
:10EC3000100B02215D4822F0FDF85D495B4821F090
:10EC4000CFFF606822F008FD41EC100B022157480D
:10EC500022F0F0F85649554821F0C2FFA06822F092
:10EC6000FBFC41EC100B0221504822F0E3F8504924
:10EC70004E4821F0B5FFE0685D4C22F0EDFC41EC20
:10EC8000100B0221494822F0D8F85A49474821F090
:10EC9000A7FF594B454893ED000B022122F0CAF81B
:10ECA0004349424821F09CFF5449404821F098FFD5
:10ECB000534B3E4893ED000B022122F0BBF83C4938
:10ECC0003A4821F08DFF4F49384821F089FF2068EC
:10ECD00022F0C2FC41EC100B0221344822F0AAF8C9
:10ECE0003349324821F07CFF4749304821F078FF12
:10ECF000606822F0B1FC41EC100B02212B4822F09D
:10ED000099F82B49294821F06BFF4049274821F009
:10ED100067FFA06822F0A0FC41EC100B0221234801
:10ED200022F088F83049214821F06AFF38491F480D
:10ED300021F056FF374B186822F08EFC41EC100B87
:10ED400002211A4822F079F83349184821F048FF87
:10ED5000324B164819680A2221F0C4FF3049134883
:10ED600021F03EFF2F4B186822F076FC41EC100B8F
:10ED700002210E4822F05EF82B490C4821F030FFAA
:10ED80002A4B186822F068FC41EC100B022107485E
:10ED900022F050F82649054821F022FF296849E071
:10EDA0008C20002034220020254A040048710020D5
:10EDB000B74F04002B4A0400314A0400374A0400CC
:10EDC0005C2200203D4A0400434A0400494A0400F2
:10EDD0004F4A040018220020554A040098210020C0
:10EDE0005C4A040090210020B84F0400674A0400E8
:10EDF000A4210020774A0400F04D00207F4A04003F
:10EE000010220020864A04008D4A0400944A04001F
:10EE10009B4A0400E0210020AB4A04008820002027
:10EE2000B14A0400B4210020B74A04003424002071
:10EE3000BF4A040002480A22BDE8384021F052BF10
:10EE40004871002070B54C4C2DED028B05202668D2
:10EE500021F098FD012820602546484C17D13EB985
:10EE600021F064FC07EE900AF8EE677AC4ED007AB0
:10EE700094ED008A21F05AFC07EE900AF8EE677ACA
:10EE80009FED3F7A78EE677A87EE878A19E094EDF6
:10EE9000008ADFED3C8AB4EE688AF1EE10FA0ED0FB
:10EEA00021F044FC07EE900AF8EE677A9FED347A81
:10EEB000C4ED008A78EE677A87EE878A01E0B0EECB
:10EEC000688A314B1A781E46D2B13049304821F059
:10EED00087FE0A2229682E4821F002FF2D492C487E
:10EEE00021F07EFE18EE100A22F0B6FB41EC100B6A
:10EEF0000221274821F09EFF2749254821F080FE66
:10EF0000B5EEC08AF1EE10FAF0EE087A48BF0023A1
:10EF1000B4EEE78A48BF2360F1EE10FA10DD1F4B14
:10EF20001A780AB901221A701B7813B11B4B002200
:10EF30001A701B4B1B49164803221A6021F060FE11
:10EF4000F2EE007AB4EEE78AF1EE10FA10DD164B1D
:10EF500001221A7033781BB114490D4821F050FE7C
:10EF6000BDEC028B4FF4FA60BDE8704021F00EBC9E
:10EF7000BDEC028B70BD00BF94210020E84500204D
:10EF800000007A440000000098200020CB4A0400D2
:10EF900048710020D44A0400264E040008220020B4
:10EFA00084200020E34A04005C4E0020F74A04005D
:10EFB00038B50F4B1C68002C18DD0E4D2A78013C2B
:10EFC00052B91C6094B90A2201211E201A6021F056
:10EFD000C7FC01232B7038BD0CB11C6038BD022268
:10EFE00021461E201A6021F0BBFC2C7038BD00BFEA
:10EFF00084200020484E00202DE9F8438449DFF8A2
:10F0000070820746834821F0EBFD39460A22814889
:10F0100021F068FE6FF063096FF0090C4FF47A700D
:10F02000DFF850E297FBF0F164230A2697FBF3F335
:10F0300097FBF6F50CFB013309FB0155A0F5FA60CF
:10F040000CFB035400FB0170734DCEF8003009FB3C
:10F0500003032C600CFB0434C8F800406F4C704A6A
:10F06000237811601746F14643B16E49694821F093
:10F07000B7FD32463968674821F032FE3A68012A06
:10F0800047D1D9F80030012B40F088802B68012B44
:10F0900008D1092164481EF049FB2378002B7DD05C
:10F0A000624978E0022B08D110215F481EF03EFB38
:10F0B0002378002B72D05E496DE0032B08D112211A
:10F0C00059481EF033FB2378002B67D0594962E082
:10F0D000042B08D1112154481EF028FB2378002B63
:10F0E0005CD0554957E0052B08D107214E481EF04A
:10F0F0001DFB2378002B51D050494CE0062B4DD1FD
:10F10000082149481EF012FB2378002B46D04C49B9
:10F1100041E0022A42D1D9F8001001293ED12B68E2
:10F12000012B08D1032140481EF000FB2378002B5F
:10F1300034D044492FE0022B07D104213A481EF075
:10F14000F5FA237853B3404925E0032B07D1062174
:10F1500035481EF0EBFA237803B33C491BE0042B3F
:10F1600007D1052130481EF0E1FA2378B3B13849C0
:10F1700011E0052B06D12C481EF0D8FA23786BB18C
:10F18000344908E0062B09D1114627481EF0CEFA73
:10F1900023781BB130491F4821F032FDD8F80030E8
:10F1A0003BB9012120481EF099FB23786BB32B4912
:10F1B00026E0012B07D102211B481EF08FFB23788C
:10F1C0001BB327491CE0022B07D1032116481EF070
:10F1D00085FB2378CBB1234912E0032B07D104210F
:10F1E00011481EF07BFB23787BB11F4908E0042BFC
:10F1F0000BD105210C481EF071FB23782BB11B4964
:10F200000448BDE8F84321F0FBBCBDE8F88300BF2B
:10F210004C5404004871002038240020982000201D
:10F220004C4E0020024B0400482400200D4B0400EB
:10F230001F4B0400304B0400414B0400514B0400B1
:10F24000634B0400744B0400864B0400974B04008E
:10F25000A84B0400B84B0400CA4B0400DB4B04006D
:10F26000EA4B0400F44B0400024C04000D4C040073
:10F27000504E00203C24002010B527492748284C38
:10F2800021F0AEFC2748FDF7B5F90A2201462348D4
:10F2900021F0FAFC2449214821F0A2FC2148FDF785
:10F2A000ADF90A2201461D4821F0EEFC1F491B481A
:10F2B00021F096FC00211B48FDF7A4F9102201461D
:10F2C000164821F0D7FC1748FDF798F9411E15485C
:10F2D000FDF798F92060FDF799FC236814491C6834
:10F2E0000E4821F07DFC0A2221460C4821F0FAFC50
:10F2F0006FF47A73E21840F2CE739A4205D80D4942
:10F30000064821F07DFC204601E040F26C40BDE85B
:10F310001040FFF771BE00BF1D4C04004871002073
:10F32000DC210020852100202F4C0400474C0400E4
:10F33000614C04006E4C04002DE9F0415B4B1B78DE
:10F3400098B00C461BB15A495A4821F045FC236835
:10F350002046DB689847236807461B692046984784
:10F3600000250646EBB29E4211D9795D102201A814
:10F3700021F086FF10220021019823F0AFFC04AB9E
:10F3800043F8250001A821F0F1FE0135EAE74A49DA
:10F39000484821F025FC0025B5420CDA04AB0A22CE
:10F3A00053F82510434821F09BFC4449414821F083
:10F3B00017FC0135F0E741493E4821F021FC236864
:10F3C0002046DB689847236805461B692046984716
:10F3D000014628461EF0D8FF059D049A3849354855
:10F3E000384C64277D434FF47A7303FB0255069B28
:10F3F0000A2606FB0355079B1D4421F0F1FB294615
:10F4000032462C4821F06EFC2F481EF023FD0220CE
:10F4100021F0BCF92C481EF0F9FC022021F0B6F9CD
:10F42000FDF7CDFB022021F0B1F9284A0123136139
:10F43000274AFA20137021F0A9F926491D4821F026
:10F44000DFFB2068FDF7E2FB23491A4821F0D8FBD7
:10F450002248D4F80080FDF7CDF8414602461F4807
:10F46000FDF7DAF82068FDF7D1FB2A4621681B4832
:10F47000FDF700F91A490F4821F0C2FB2068FDF79B
:10F48000C5FB23680D491C680A4821F0A9FB3246D8
:10F490002146084821F026FC2046FFF7ADFD3846FE
:10F4A00021F074F918B0BDE8F08100BF9820002069
:10F4B000884C040048710020B54C04004C540400F2
:10F4C000C74C0400DC210020B822002000100040BE
:10F4D0009C210020D84C0400EE4C04008521002023
:10F4E000F94C040038B51F4C1F4DD4ED007AF5EEF1
:10F4F000407AF1EE10FA21D021F018F9A0F57A70D7
:10F5000007EE900A94ED007AF8EE677AF4EEC77A87
:10F51000F1EE10FA04D50121192021F021FA0DE0B5
:10F520000021192021F01CFA0023236021F0FEF8AD
:10F5300007EE900AF8EE677AC5ED007A21F0F6F84A
:10F54000A0F6B83007EE900A95ED007AF8EE677AEB
:10F55000F4EEC77AF1EE10FA03DDBDE8384021F091
:10F56000E5B838BD204E002018460020344B354801
:10F570001A68354B70B51A60344D354B354C364EE4
:10F5800001225A60FDF71AF908212846FDF798F87C
:10F59000224632492846324D22F0E4FBFF231A4628
:10F5A000194628461EF0DCFD22462E49284622F048
:10F5B000D9FB2D492D482E4D1EF09CFE14231222FE
:10F5C0002C4930461EF0E2FA30462B4E22462946A0
:10F5D00022F0C8FB14230822284930461EF0D6FA30
:10F5E0003046274E2246294622F0BCFB1423122225
:10F5F000244930461EF0CAFA3046234E2246294698
:10F6000022F0B0FB14231222204930461EF0BEFA2D
:10F6100030461F4E2246294622F0A4FB142308221E
:10F620001C4930461EF0B2FA29462246304622F0E6
:10F6300099FB00211848BDE870401EF0F0B900BFEA
:10F6400094200020544E00208821002044220020D5
:10F65000482400208020002070220020CDC6010018
:10F66000B8220020D5E003000F4D0400282200201E
:10F6700039DB0300144D040094220020194D0400CE
:10F68000B82100201E4D0400E4210020234D040079
:10F69000244E0020284D0400A021002038B5054646
:10F6A00051B101290AD002290AD003290AD004291C
:10F6B00014BF00242D2406E00C4604E02A2402E0B6
:10F6C0002B2400E02C242146134820F0FCF8294686
:10F6D000114820F015F8012021F058F800210E48BB
:10F6E00020F0FBF8214603220B4820F0E9F8012026
:10F6F00021F04CF8084820F015F80446064820F0A0
:10F7000011F80546044820F00DF8012021F03EF8DC
:10F7100044EA052080B238BD84700020000000005B
:10F7200008B5FFF7BBFF07EE900AF8EE677A17EE11
:10F73000900A21F091FF0AA3D3E9002321F0E0FF12
:10F7400022F0C0FA21F088FF07A3D3E9002321F0BB
:10F7500023FE22F0B7FA00EE100A08BDAFF30080D6
:10F760007B14AE47E17A943F666666666612714026
:10F7700008B501462720FFF7D3FFF2EE027A20EE0C
:10F78000270AF1EE047A80EE277ADFED057A77EE2C
:10F79000277A17EE900A21F05FFF41EC100B08BDAD
:10F7A0000000004208B501462620FFF7B9FFF2EE3F
:10F7B000027A20EE270AF1EE047A80EE277ADFED56
:10F7C000057A77EE277A17EE900A21F045FF41EC93
:10F7D000100B08BD00000042F8B5314E314F002437
:10F7E000354601342046FFF7DDFF51EC100B22F0C7
:10F7F00069FA46F8040B2046FFF7BAFF51EC100BEC
:10F8000022F060FA042C47F8040BEAD1D5ED007A17
:10F8100095ED017A95ED026AD5ED035A224B77EE0C
:10F82000876AB5EE005A76EE866AF4EEC77A76EE0F
:10F83000A56AF1EE10FA66EE856AC3ED006A54BF60
:10F84000F0EE476AF0EE676AF4EEC66AF1EE10FA7F
:10F8500001D4F0EE466AF4EEE56AF1EE10FA15D541
:10F86000F4EEC77AF1EE10FA54BFF0EE476AF0EE0C
:10F87000676AF4EEC66AF1EE10FA0AD5F4EEC77ABA
:10F88000F1EE10FA58BFF0EE477A04E0F0EE657A38
:10F8900001E0F0EE467A054BC3ED007AF8BD00BFFB
:10F8A0005C220020342200209821002014460020F1
:10F8B000F8B52D4C2D4D2E4E2E4F294620461EF0CC
:10F8C000ACFA29462C4D20461EF03BFC28461EF083
:10F8D0009EF8014620461EF09DFA20464FF6FF7125
:10F8E0001EF032FC29462046244D1EF0F0FB311D4F
:10F8F00020461EF0ECFB291D20461EF0E8FB2046AA
:10F900001F491EF0E4FB20461E491EF0E0FB204686
:10F910001D491EF0DCFB20461C4A00211EF0ABFAFC
:10F9200020461B4A01211EF0A6FA3A463046002125
:10F930001EF061F93A46284600211EF05CF90021CC
:10F9400030461EF0EAF8002128461EF0E6F8114B7A
:10F9500049F640421A6020F001FF0F4B1860204624
:10F96000BDE8F8401EF0ABBAB82200205E4D04009E
:10F970007022002039F30100282200209422002068
:10F98000BC210020E8210020284E0020A90402000C
:10F99000C5CB0100302200204424002070B54FF474
:10F9A000E131424821F095FA414B1A781E461AB1CE
:10F9B00040493E4821F014F9322020F0E7FE3E484D
:10F9C0003E4C1FF0E1FE322020F0E0FE3C4937487B
:10F9D00021F016F92046FDF729F84FF4FA7020F0CF
:10F9E000D5FE3849314821F00BF92046FCF788FF55
:10F9F0004FF4FA7020F0CAFE642533492B4821F0F9
:10FA0000FFF82846A58020F0C1FE02212046FCF721
:10FA100071FF284620F0BAFE2C49244821F0E0F876
:10FA20002B48FCF780FE0A220146204821F05AF9B3
:10FA3000C82020F0ABFE01211E2020F06FFF012125
:10FA40001E2020F08DFF0221052020F067FF0121FC
:10FA5000192020F063FF0021192020F081FF0221EE
:10FA60001C48FCF79BFD1C4B1C4A1D4918680023D1
:10FA7000834203DA42F8041B0133F9E7FFF7FCFB8A
:10FA8000FFF716FF33781BB11649084821F0B8F884
:10FA900020F04CFE07EE900A134BF8EE677A6420D4
:10FAA000BDE87040C3ED007A20F070BE48710020C0
:10FAB00098200020654D040084700020544E0020E2
:10FAC0006F4D04007C4D04009F4D0400C04D0400A8
:10FAD0004422002084210020902000201C46002089
:10FAE0007DFFC742D94D0400B02100200000000076
:10FAF00010B52DED028B8CB06846AD491EF0AEF905
:10FB000068461DF0C4FF002800F02E81A94BDFEDF0
:10FB1000AA7ADFEDAA5A03AA03F11001F0EE676A90
:10FB2000B2EE006AB3EC017A9FEDA38AB4EEE77AF5
:10FB3000F1EE10FA07DDB4EEE57AF1EE10FA03D437
:10FB40009FED9F7A07E004DD37EE667A27EE067AAE
:10FB500001E09FED9C7AA2EC017A9942E2D19A4BA6
:10FB6000D3ED007AF4EEC87AF1EE10FA09DD9FEDDC
:10FB7000937AF4EEC77AF1EE10FA03D49FED908AEF
:10FB800009E006DD77EEC87AB2EE008A27EE888AB1
:10FB900001E09FED8C8A1C2020F01CFE962806D8E0
:10FBA0001C2020F017FE962808D800240DE01C2009
:10FBB00020F010FEC728F3D9642406E01C2020F0B2
:10FBC00009FE00F1004096384400804B14220021C9
:10FBD00007A81C6022F074F97D497E4B0022D1E910
:10FBE000000121F0B7FE70A3D3E9002321F088FDC6
:10FBF00022F048F878498DF81C000022754BD1E9B5
:10FC0000000121F0A7FE68A3D3E9002321F078FDCD
:10FC100022F038F8714B8DF82440D3ED007A704C07
:10FC20008DF81D00FCEEE77A206817EE903ADDEDC6
:10FC3000037A8DF81E30FCEEE77A17EE903ADDED90
:10FC4000047A8DF81F30FCEEE77A17EE903ADDED7E
:10FC5000057A8DF82030FCEEE77A17EE903ADDED6C
:10FC6000067A8DF82130FCEEE77A17EE903AFCEE3A
:10FC7000C87A8DF8223017EE903A8DF8233021F0B3
:10FC8000EBFC0022574B21F089FB0022564B21F060
:10FC900037FD21F0F7FF8DF82600606821F0DCFCCD
:10FCA0000022504B21F07AFB00224F4B21F028FD1F
:10FCB00021F0E8FF8DF82700A06821F0CDFC00229C
:10FCC000484B21F06BFB0022474B21F019FD21F03E
:10FCD000D9FF464ADFED467A92ED007A8DF828008A
:10FCE00027EE277A07A9BCEEC77A424817EE103AEA
:10FCF00092ED017A8DF8293027EE277ABCEEC77A8B
:10FD000017EE103A8DF82A3092ED027A27EE277A14
:10FD1000BCEEC77A17EE103A92ED037A8DF82B30CD
:10FD200027EE277A1422BCEEC77A17EE103A8DF828
:10FD30002C30314B93ED007A27EE277ABCEEC77A50
:10FD400017EE103A8DF82D302C4B93ED007A67EEBC
:10FD5000277AFCEEE77A17EE903A8DF82E301DF0F8
:10FD600000FF052020F012FD254B1B78C3B125496B
:10FD7000254820F035FF20F0D9FC244B07EE900AEF
:10FD8000B8EE677AD3ED007A77EE677A17EE900ACD
:10FD900021F062FC41EC100B02211B4821F04DF8D0
:10FDA0000CB0BDEC028B10BD0000000000E06F4005
:10FDB000B82200203422002000008C420000CA42F9
:10FDC0000000784300000000982100208C200020D3
:10FDD0001022002000807640F04D0020E02100201D
:10FDE000A42100200000F03F00005940182200200C
:10FDF00000007F43B8210020B421002034240020DB
:10FE00008C210020024E0400487100206C2200204A
:10FE10002DE9F041C74BC84C2DED048BD4ED007A91
:10FE200093ED008A86B037EE888A20F07FFC07EEDB
:10FE3000900AF8EE677AB4EEE78AF1EE10FA40F134
:10FE40008C8220F073FCBD4E07EE900A3378F8EEFA
:10FE5000677AC4ED007ADBB1B949BA4820F0D0FE28
:10FE6000B949B84820F0BCFE94ED007ADFEDB77ACE
:10FE7000C7EE276A16EE900A21F0EEFB41EC100B5C
:10FE80000221B04820F0D6FFB149AE4820F0B8FEBC
:10FE9000B04D2B78BBB1B049AA4820F0A1FE20F0AC
:10FEA00045FC07EE900AB8EE677AD4ED007A77EE5B
:10FEB000677A17EE900A21F0CFFB41EC100B02217C
:10FEC000A04820F0BAFFA54F3B7883B1A44B4FF078
:10FED0000008C3F81080052020F058FCA1481DF050
:10FEE000EEFF142087F8008020F050FC02E09D48CF
:10FEF0001DF088FF2B78BBB19B49924820F070FE23
:10FF000020F014FC07EE900AB8EE677AD4ED007A80
:10FF100077EE677A17EE900A21F09EFB41EC100B0A
:10FF20000221884820F089FFFEF78CFFFFF740F898
:10FF30002B78BBB18D49834820F052FE20F0F6FBB0
:10FF400007EE900AB8EE677AD4ED007A77EE677A1A
:10FF500017EE900A21F080FB41EC100B022179484A
:10FF600020F06BFF824B1B781BB93378002B00F01D
:10FF7000F481FCF769FE2B78BBB17E49714820F013
:10FF80002FFE20F0D3FB07EE900AB8EE677AD4ED8F
:10FF9000007A77EE677A17EE900A21F05DFB41EC6C
:10FFA000100B0221674820F048FFFFF715FC2B7863
:10FFB000BBB17149634820F013FE20F0B7FB07EE98
:10FFC000900AB8EE677AD4ED007A77EE677A17EE8A
:10FFD000900A21F041FB41EC100B0221594820F01E
:10FFE0002CFF20F0A3FB654F07EE900A97ED007AF7
:10FFF000F8EE677A77EEC77A9FED617AF4EEC77A0A
:020000022000DC
:10000000F1EE10FA23DD3378BBB15E494D4820F0A4
:10001000E7FD20F08BFB07EE900AB8EE677AD7ED8C
:10002000007A77EE677A17EE900A21F015FB41EC23
:10003000100B0221434820F000FFFCF7B5FE20F032
:1000400075FB07EE900AF8EE677AC7ED007A4E4B23
:10005000DFED4E7A93ED057AB4EEE77AF1EE10FA21
:1000600001D5FCF7A1FEFEF72FFCFEF7C1FC2B78B3
:10007000BBB14749334820F0B3FD20F057FB07EEF2
:10008000900AB8EE677AD4ED007A77EE677A17EEC9
:10009000900A21F0E1FA41EC100B0221294820F0EE
:1000A000CCFEFFF725FD2B78BBB13A49254820F05F
:1000B00097FD20F03BFB07EE900AB8EE677AD4ED8F
:1000C000007A77EE677A17EE900A21F0C5FA41ECD4
:1000D000100B02211B4820F0B0FE33780BB1FEF765
:1000E000D3FC2D4B9FED2E7AD3ED007AF4EEC77A38
:1000F000F1EE10FA09DDDFED296AF4EEE67AF1EEB1
:1001000010FA58BFF0EE667A02E0D8BFF0EE477AF8
:10011000D3ED016AF4EEC76AF1EE10FA42DD9FED0D
:100120001F6AF4EEC66AF1EE10FA58BFF0EE466AA6
:100130003BE000BF882100206C2200209820002096
:100140004C540400487100201E4E040000007A4404
:10015000254E04008C210020284E04009C21002004
:1001600000100040B82200204C4E0400624E0400F3
:100170009D2100207C4E04009C4E0400B0210020F4
:100180000000FA43B54E0400F84D0020000048423C
:10019000F04E04000B4F0400342200200000CA423D
:1001A00000008C42D8BF5FED026A77EEA66AD3EDFD
:1001B000027AF4EEC77AF1EE10FA09DD1FED096A52
:1001C000F4EEC67AF1EE10FA58BFF0EE467A02E08D
:1001D000D8BF5FED0D7A77EEA66AD3ED037AF4EE21
:1001E000C77AF1EE10FA09DD1FED146AF4EEC67A53
:1001F000F1EE10FA58BFF0EE467A02E0D8BF5FED9C
:10020000187A584BDFED585A77EEA67AF5EE006A69
:1002100067EEA67A02AA03F11001B6EE005AF3ECDB
:10022000016AF4EEC76AF1EE10FA07DDF4EEE56A52
:10023000F1EE10FA58BFF0EE656A02E0D8BFDFEDCC
:100240004B6A86EEA76A8B4276EE456AE2EC016A5B
:10025000E5D1474F9DED038ADDED028A9DED059ABC
:1002600097ED002ADFED439A434882EE292AF0EE0B
:10027000491AB0EE481AF0EE480AB0EE680A1AF0D1
:100280002FFB3E493E4B0022D1E9000110EE108ABF
:1002900021F060FB21F016FD3A49394B0190002214
:1002A000D1E9000121F056FB21F00CFD97ED002A69
:1002B0009DED013A02EE900A82EE292A2E48F0EED8
:1002C000491AB0EE481AF0EE480AB0EE680A1BF080
:1002D000D1FD337810EE107ACBB12B492B4820F0AA
:1002E0007FFC404621F0B8F941EC100B0221274871
:1002F00020F0A0FD2649254820F072FC384621F068
:10030000ABF941EC100B0221204820F093FD214B6A
:10031000C3F80080204B1F60FFF7E4F82B78E3B1AF
:100320001E491A4820F05CFC20F000FA07EE900A03
:10033000B8EE677AD4ED007A77EE677A17EE900A16
:1003400021F08AF941EC100B1048022106B0BDECF7
:10035000048BBDE8F04120F070BD06B0BDEC048B0D
:10036000BDE8F081342200200000CA4200008C4227
:10037000E021002000007A434824002010220020C1
:1003800000807640F04D00202E4F04004871002080
:100390003B4F0400B421002034240020494F0400C6
:1003A00000B589B0684638491DF058FD68461DF013
:1003B0006EFB002844D0354B35481A688DF80C2068
:1003C0005A688DF80D209A688DF80E20DA688DF83D
:1003D0000F201A698DF810205A698DF811209A693A
:1003E0008DF81220DA698DF813201A6A8DF814201E
:1003F0005A6A8DF815209A6A8DF81620DA6A8DF8F7
:1004000017201A6B8DF818205A6B8DF819209A6BEB
:100410008DF81A20DA6B8DF81B201A6C8DF81C20D1
:100420005A6C8DF81D209A6C8DF81E20DB6C8DF8AF
:100430001F30142203A91DF094FB052020F0A6F91B
:100440001449154820F0DCFB144B1B78C3B1144948
:10045000114820F0C5FB20F069F9124B07EE900A15
:10046000B8EE677AD3ED007A77EE677A17EE900AE6
:1004700021F0F2F841EC100B0221074820F0DDFCDE
:1004800009B05DF804FB00BFB8220020604E0020D8
:1004900070220020554F0400487100208C2100205C
:1004A000634F04006C2200200F4B012210B51A701C
:1004B0000E4B00221A600E4B1B78044653B10D49B7
:1004C0000D4820F089FB20461DF0F2FA01460A484B
:1004D00020F096FB094B0C22DA64FFF761FF052040
:1004E000BDE8104020F052B99D210020402400209A
:1004F000982000207E4F040048710020604E0020AC
:10050000B74AB84BB848DFF880C42DE9F0430A6019
:10051000B64A4A60B64A8A60B64A0A61B64A8A61F1
:10052000B64A0A62B64A8A62B64A0A63B64A4A6359
:10053000B64A8A63B64ACA63B64A0A64B64A4A6485
:10054000B64A8A64B64ACA64B64A0A65B64A4A6571
:10055000B64A8A65B64AC1F8F822B64AC1F80823F5
:10056000B54ACB60C1F80C23B44BB54A4B61C1F816
:100570001023B44BB44ACB61C1F81423B34BB44A33
:100580004B62C1F8182300234FF07E52B14CC8656E
:10059000CB620B66C1F800238C67AF4CCC67AF4CC5
:1005A000C1F88040AE4CC1F88440AE4CC1F88840E0
:1005B000AD4CC1F88C40AD4CC1F89040AC4CC1F88A
:1005C0009440AC4CC1F89840AB4CC1F89C40AB4C4B
:1005D000C1F8A040AA4CC1F8A440AA4CC1F8A84058
:1005E000A94CC1F82043A94CC1F83043A84CC1F82C
:1005F0003443A84CC1F83843A74CC1F83C43A74C3E
:1006000048668866C86608674867C1F84043A448DA
:10061000A44CC1F8F421C1F8AC00C1F82823C1F8FA
:100620003422C1F8B400C1F8B800C1F8BC00C1F868
:10063000B030C1F8C000C1F8C8409B4CC1F8CC40F4
:100640009A4CC1F8D0409A4CC1F8D440994CC1F8AA
:10065000D840994CC1F8DC40984CC1F8E040984C27
:10066000C1F8E440974CC1F8E840974CC1F8EC4021
:10067000964CC1F8F040964CC1F8F440954CC1F846
:10068000F840954CC1F84843944CC1F85843944CF9
:10069000C1F85C43934CC1F86043934CC1F8644388
:1006A000924CC1F86843924CC1F8C400C1F818419B
:1006B0009048914CC1F8FC00C1F80401C1F8080150
:1006C000C1F80C01C1F81001C1F81401C1F81C41B6
:1006D0008A488B4CC1F85023C1F87422C1F84C01F0
:1006E000C1F80031C1F82041864CC1F82441864C44
:1006F000C1F82841854CC1F82C41854CC1F83041E6
:10070000844CC1F83441844CC1F83841834CC1F861
:100710003C41834CC1F84041824CC1F84441824C79
:10072000C1F84841814CC1F87043814CC1F8804305
:10073000804CC1F88443804CC1F888437F4CC1F899
:100740008C437F4CC1F890437E4CC1F868417E4C8D
:10075000C1F86C417D4CC1F870417D4CC1F87441C9
:100760007C4CC1F878417C4CC1F87C417B4CC1F891
:100770005401C1F85801C1F85C01C1F86001C1F829
:100780006401C1F880417648764CC1F87823C1F8FD
:10079000B422C1F89C01C1F85031C1F88441C1F8BC
:1007A000A401C1F8A801C1F8AC01C1F8B001C1F8B9
:1007B000B4016D48C1F8EC016C48C1F8B8016C484F
:1007C000C1F8BC016B4C6C48C1F88841C1F8C0014C
:1007D0006A4C6B48C1F88C41C1F8C401694CD5E042
:1007E0000DA28F3FAE24F33E3E41413FA9FD8F3F16
:1007F00041B6833F318E8C3DAF9DA23C49385DBDF3
:100800004C31BB3D735787BD99FF7F3FE5A7193D2D
:100810007DC07F3F014BA2BB361DBE394579BCBDB3
:100820000479DC39EBD79DBD374BBF39AB063FBDF3
:10083000AA5D4041CE04E93ECA3AAD3E0A65083F92
:10084000BF18833EC4FBF73EFCF41C3FBD0A023FC9
:10085000D792763D559F2D40E8B42D408E7EE43FE3
:10086000C7C0293E34023A3EA86FD63D75A3143E58
:10087000C947783D30D9B83E6340893E5FF1103DAD
:1008800043DE633D5F5382BDB74FE04005EF423F1B
:10089000CAA71340674C8C3F8BA19FBF34422A3FAD
:1008A0006D17703FD4C2AB3FE2E2AB3FAB9D833FDD
:1008B0004297DC3D970D9C3DFBD89D3D0A36853D1A
:1008C0006B2E073D72E9E23D4C4D2B3DC2609E3CD4
:1008D000845C35BDDDBC93BDBB58FEC023FCEFBEC0
:1008E0009F1E83BE5314BDBE7DF50FBF42F442BEB2
:1008F000D7F8973F6FFF4A3F068E973FF602443F77
:100900009071843F9722B1BCE0BF073E5734373D1A
:10091000F4448E3D57E45D3D64D5AD3CCD50313C53
:100920001ACFBE3DBE77163D42B35FBD65F5F9C037
:10093000AF99C7BE2A02B1BE3CF4C1BEFF3A20BF88
:100940007A9873BE82F19E3F87739F3FC972853F3D
:100950002540123E11D3053E0C3C5CBDB1B9B83DFB
:100960006FCC463F551EA1BD20806B3F01DD1B4073
:10097000753E1C4005DE823DEDE68C3F73B192BCB6
:10098000405EB83EB485483D9BD9453FBC48C1F860
:100990009041C1F8C801BB4CBB48C1F89441C1F8B3
:1009A000CC01BA4CBA48C1F89841C1F8D001B94C51
:1009B000B948C1F89843C1F8D401B84CB848C1F857
:1009C000A843C1F8D801B74CB748C1F8AC43C1F847
:1009D000DC01B64CB648C1F8B043C1F8E001B54CF3
:1009E000B548C1F8B443C1F8E401B44CB448C1F807
:1009F000B843C1F8A023C1F8F422C1F8A031C1F86E
:100A0000E801B048C1F82C02AF48C1F8F801AF487E
:100A1000C1F8FC01AE48C1F80002AE48C1F80402BA
:100A2000AD48C1F80802AD48C1F80C02AC48C1F8A5
:100A30001002AC48C1F81402AB48C1F81802AB4828
:100A4000C1F81C02AA48C1F82002AA48C1F8240231
:100A5000A948C1F82802A948C1F86C02A848C1F801
:100A60003802A848C1F83C02A748C1F84002A7488C
:100A7000C1F84402A648C1F84802A648C1F84C0291
:100A8000A548C1F85002A548C1F85402A448C1F8CD
:100A90005802A448C1F85C02A348C1F86002A34808
:100AA000C1F86402A248C1F86802A248C1F8AC02C9
:100AB000A148C1F8F031C1F83032C1F87032C1F844
:100AC00078029E48C1F87C029D48C1F880029D488A
:100AD000C1F884029C48C1F888029C48C1F88C0285
:100AE0009B48C1F890029B48C1F894029A48C1F80B
:100AF00098029A48C1F89C029948C1F8A002994806
:100B0000C1F8A4029848C1F8A8029848C1F8EC02BC
:100B10009748C1F8B8029748C1F8BC029648C1F896
:100B2000C0029648C1F8C4029548C1F8C802954869
:100B3000C1F8CC029448C1F8D0029448C1F8D4025C
:100B40009348C1F8D8029348C1F8DC029248C1F832
:100B5000E0029248C1F8E4029148C1F8E8029148E5
:100B6000C1F8FC029048C1F8040301F284708F4C74
:100B7000C1F8B032C1F8F032C1F81C3304608C48BF
:100B8000C1F8FCC3C1F8E00301F58460894C04603E
:100B900001F58C60884C046001F59460874C04601A
:100BA00001F59C60864C046001F29460854C046001
:100BB00001F5AC60844C046001F5DA60834D05609A
:100BC00001F2CC558248286001F5A465814E2E6063
:100BD00001F29455804E2E6001F5C0657F4E2E6067
:100BE00001F5C9657E4E2E6001F5E1657D4E2E60F2
:100BF00001F5EA657C4E2E607C4DC1F824537C4D96
:100C0000C1F82C5301F5F1657A4EC1F844332E60DA
:100C100001F23C45DFF80CE2C5F800E0764DC1F882
:100C2000E45301F22445754E2E6001F26445744E82
:100C30002E6001F2A445734E2E6001F2E445724E1F
:100C40002E6001F5D365714E2E6001F26455704E31
:100C50002C6001F2D4656F4F2E6001F5BA656E4EBF
:100C6000286001F22455DFF8C0812E6001F5B365DC
:100C70006A4E2E6001F20465694E2E60D6E000BF18
:100C80008DE24A3EB8088EBDC938113E44BE8BBDC8
:100C90006F6FAE3EB41FFEC07BE7C43DCF69EDBEB3
:100CA0008526DF3E274C89BEF6EEC53E322E8EBE2F
:100CB000BD35373D96802FBFB1997F3D799553BEA5
:100CC000352B0A3E05E2153F3AC2AF3E9BCCB03E03
:100CD000A800813FD2EC3ABD6172CB3E2221853D16
:100CE000418E78BFD21F8A3DB2D4A9BE747383BD32
:100CF0001DE97EBD84B1ACBD1C9B24BEBBB9603F69
:100D0000B917FC3F056DFC3F0981873F1E246D3EEE
:100D1000B8851D3ECD76DB3D4416973E18FAEC3B78
:100D2000DF10763E775B8F3E65EA07BDAC17743DFA
:100D30003D1798BD31B5613F448D0040CE880040DD
:100D40009F97863F8965D33DCC930B3E870B303D03
:100D50008E54A03E4DDC013D6C7DB63E5652993E10
:100D6000D08FD43D5BF9833D23614FBC7478613FE4
:100D7000D9E3FF3F81EFFF3FFCFB873FF6A34A3EED
:100D80006AAD143E8B183E3E9F29573EFD20E13B45
:100D90007D1FCE3ECB0B2B3E01E69CBB9D338B3C97
:100DA00098F58FBDB5FC3F4169489F3E31464841AB
:100DB0003E6BD6C0F65A07C0284847BF69006BBFD4
:100DC000CB693CBF08E6EA3DDE05403F0D79583D62
:100DD0005359363F3C33693D4F5B5D3BDEF1DB3DB4
:100DE00031F7533CA5388CBF09AF83BF9505DE4072
:100DF00075FDB73FA64D71BFD878BFC04ACCEEBFD6
:100E000021623DBFACF74EBF1D9837BF3F83C73D42
:100E100050EE573EBC15BF3E00E31CBD20A9A4BD4B
:100E2000F697EB3CC177BF3DC2F77DBF01F24C6541
:100E3000E14E2E6001F20C75E04E2E6001F2547509
:100E4000DF4E2E60DF4DC1F84C53DF4DC1F85453D7
:100E500001F28C75DD4EC1F86C332E6001F27C45D9
:100E6000DB4E2F60DB4DC1F8E85301F58565DFF8F7
:100E7000C0932E6001F58D65D74E2E6001F5956506
:100E8000D64E2E6001F59D65D54E2E6001F29C6513
:100E9000D44E2E6001F5AD65D34E2C6001F5DB65B7
:100EA0002E6001F2D455D14E286001F5A5652E6063
:100EB00001F29C55CE4E2E6001F5C165CD4E2E60DF
:100EC00001F5CA65CC4E2E6001F5E265CB4E2E6071
:100ED00001F5EB65CA4E2E60CA4DC1F87453CA4D78
:100EE000C1F87C5301F5F265C84EC1F894332E6009
:100EF00001F2BC45C64E2E60C64DC1F8EC5301F25E
:100F00002C45C5F8008001F26C45DFF82883C5F850
:100F1000008001F2AC45DFF82083C5F8008001F2C3
:100F2000EC45DFF81883C5F8008001F5D465DFF8DB
:100F30001083C5F8008001F26C55DFF808832C603F
:100F400001F2DC65C5F8008001F5BB65DFF8F882C9
:100F5000286001F22C55C5F8008001F5B465DFF872
:100F6000EC82C5F8008001F20C65DFF8E482C5F878
:100F7000008001F25465DFF8DC82C5F8008001F2E0
:100F80001475DFF8D482C5F8008001F25C75DFF8D3
:100F9000CC82C5F80080A04DC1F89C539F4DC1F88C
:100FA000A45301F29475DFF8B882C1F8BC33C5F8D8
:100FB000008001F2FC489A4DC8F80050DFF8A48286
:100FC000C1F8F08301F58668C8F8009001F58E68D5
:100FD000DFF89492C8F8009001F59668DFF88C92DB
:100FE000C8F8009001F59E68DFF88492C8F8009078
:100FF00001F2A468DFF87C92C8F8009001F5AE68B1
:10100000DFF87492C8F8004001F5DC68C8F8009079
:1010100001F2DC58DFF86492C8F8000001F5A66818
:10102000C8F8009001F2A458DFF85492C8F8009074
:1010300001F5C268DFF84C92C8F8009001F5CB6862
:10104000DFF84492C8F8009001F5E368DFF83C92BD
:10105000C8F8009001F5EC68DFF83492C8F8009009
:10106000C1F8F4C3DFF82CC2C1F8C0C3DFF828C24E
:10107000C1F8C4C3DFF824C2C1F8C8C3DFF820C276
:10108000C1F8CCC3DFF81CC2C1F8D0C3DFF818C266
:10109000C1F8D4C3DFF814C2C1F8D8C3DFF810C256
:1010A000C1F8DCC301F5EF6CDFF80882C1F8F83352
:1010B000CCF8008001F2344CCCF800E001F5806EF1
:1010C000DFF8F4C1CEF800C001F2044EDFF8ECC145
:1010D000CEF800C001F5816EDFF8E4C1CEF800C0A3
:1010E00001F20C4EDFF8DCC1CEF800C001F5826ED3
:1010F000DFF8D4C1CEF800C001F2144EDFF8CCC145
:10110000CEF800C001F5836EDFF8C4C1CEF800C090
:1011100001F21C4EDFF8BCC1CEF800C001F5876EAD
:10112000CEF8003001F2744ECEF8007001F58867F9
:10113000DFF8A4E1C7F800E001F24447DFF89CE1E2
:10114000C7F800E001F58967DFF894E1C7F800E02F
:1011500001F24C47DFF88CE1C7F800E001F58A673F
:10116000DFF884E1C7F800E001F25447DFF87CE1E2
:10117000C7F800E001F58B67DFF874E1C7F800E01D
:1011800001F25C47DFF86CE1C7F800E001F58F671A
:101190003B6001F2B4473E6001F59066214F376035
:1011A00001F28446204F376001F591661F4F37608A
:1011B00001F28C46A0E000BFE220F93D34EC70BFA4
:1011C0007C3670BF767FFDC00A4495BED695DD3D66
:1011D000741945BFB33642BFB8E33DBF83D45ABF8D
:1011E0007EED2FBF28235A3D672C333EB77B9CBD35
:1011F0001D2C083DFD079E3D4E35AA3C89991FBF19
:101200003AAB27BF59C1F8C04C5C61BE2ECE1D3F22
:1012100095F1BE3E8BEA55BFC44CFDC0877487BEB6
:10122000904CC63E678406BF000705BF35820C4060
:1012300008F548BF067B32BFD1B057BFE36B2BBF69
:10124000A482463E21F7453EC2158E3DC3067E3D33
:10125000E8A6D73DACBBED3D4A2F1BBFDEAE19BFA4
:1012600059DA023E373942BF42C509BFEEF43CBFEE
:10127000602633BFE437D03D6E2EBA3D72BAC63D0C
:101280004288413A3BEC623C5E94813D3ED718BFB8
:10129000F97F22BFACCEA43FE3BB9C3F99AFAB41EB
:1012A0003A68F0C057F40EC2BD5D28C139612042D2
:1012B0007159B33EEF394D3E62EE11C04A6411C020
:1012C000BDB1824064755FBF7737A43D7C4574BF74
:1012D000375143C077FD7DBE244805BFB6B904BF72
:1012E000FB0BF13FE1FEC3BE89B509BF9D3ECDBEFC
:1012F0004093DEBEFB2EA3BEAC4F376001F5926675
:10130000AB4F376001F29446AA4F376001F5936600
:10131000A94F376001F29C46A84F376001F59766E8
:10132000336001F2F446356001F59865A44E2E60F5
:1013300001F2C445A34E2E6001F59965A24E2E60C0
:1013400001F2CC45A14E2E6001F59A65A04E2E60AB
:1013500001F2D4459F4E2E6001F59B659E4E2E6096
:1013600001F2DC459D4E2E6001F59F659C4E2B6081
:1013700001F244552C6001F5A0652E6001F2045580
:10138000984E2E6001F5A165974E2E6001F20C5526
:10139000964E2E6001F5A265954E2E6001F2145511
:1013A000944E2E6001F5A365934E2E6001F21C55FC
:1013B000924E2E6001F23455914E2E6001F5A765D4
:1013C000904E2E6001F23C558F4E2E6001F5A865BF
:1013D0008E4E2E6001F5A9658D4E2B6001F5CE6510
:1013E0002E6001F5D0658B4E2E6001F284658A4E29
:1013F0002E6001F5D165894E2E6001F28C65884E14
:101400002E6001F5D265874E2E6001F5CF652A600A
:1014100001F224652A6001F24C552C6001F5AA65A1
:101420002C6001F254552C6001F5AB652C6001F283
:101430005C552C6001F5B6647B4D206001F274545C
:10144000256001F5AF64794D256001F27C54784D3B
:10145000256001F5B064774D256001F28454764D26
:10146000256001F5B164754D256001F28C54744D11
:10147000256001F5B264734D256001F5B564724DC8
:10148000256001F2AC54714D256001F2B454704DE9
:10149000236001F2AC64256001F2BC646D4D2560EF
:1014A00001F5D8646C4D256001F2C4646B4D256074
:1014B00001F5D9646A4D256001F2CC64694D25605F
:1014C00001F2B464684D226001F26C64226001F59F
:1014D000B762664C106001F2BC52106001F5B86250
:1014E000106001F2C452106001F5B962106001F29F
:1014F0001C625F48106001F5BC625E48106001F23A
:10150000E4525D48106001F5BD625C48106001F274
:10151000EC525B48106001F5BE625A48106001F25F
:10152000F4525948106001F5BF625848106001F24A
:10153000FC525748106001F214625648106001F5E1
:10154000C3625548106001F5C4625448136001F24B
:101550006462106001F5C5625148106001F22C62AE
:101560005048106001F5C6624F48106001F23462C5
:101570004E48106001F5C7624D48106001F23C62B0
:101580004C48106001F5C8624B48106001F244629B
:101590004A48106001F25C624948106001F5CC6273
:1015A0004848106001F5CD628EE000BFDF77EDBEE8
:1015B000188469BF794E17BF72E3013C58822DBE73
:1015C000B02AEABEFAD5EABE050EEF3F1AA1F1BE77
:1015D00075D7F2BE6A32D4BE5908C5BE1E3F5ABE88
:1015E000382C8D3FF9AE8C3FC7C2803F4D4B9ABD22
:1015F000A0C7D33DE737873C99D43DBC558A7CBD15
:1016000001DE6C3FB8DAC43D3BF65D3F80A42ABDE5
:10161000F5B92140734C493EFE53BB3DDA5E573E5F
:10162000D7D8223EA814903D332B683FD815683F89
:10163000CD60813F9E51AFBCCF652A3D76563BBD04
:10164000FA2FF13B98FAA4BD6F92A6BD00F8803D39
:10165000A1F7EF3F900CAABB6C76233E2B382A3EB5
:10166000C71F733E9CD163BD8C728DBF1C3595BF67
:10167000D26A4B3FCF95AC3FE52AAD3FB2D3823F14
:101680001256B03D176D14BC8D68ECBCA09A6CBDB1
:10169000CF40023E3828B73DCDC30B3E86EC453FD8
:1016A000B4429D3FCAF19C3FD5F1823F168B12BDDB
:1016B0008B664B3D79D939BCF64B413DE0C0A93D25
:1016C000DADFEE3C41B8863C5248136001F27462A6
:1016D000106001F27C625048106001F5D5624F48FD
:1016E000136001F5F362106001F22C724C48106037
:1016F00001F21C72146001F264724A4C146001F52C
:10170000D662494C146001F5D762484C146001F26E
:10171000E462474C136001F29C72146001F274742D
:10172000444A226001F5E464256001F5ED64424D10
:10173000256001F22474206001F5DD603F4C0460F7
:1017400001F2EC603E4C046001F5DE603D4C04604B
:1017500001F2F4603C4C046001F5DF603B4C046036
:1017600001F2FC603A4C046001F5E060394C046021
:1017700001F20470384C046001F5E560036001F289
:101780006C70026001F5E6623448106001F2347258
:101790003348106001F5E7623248106001F23C7294
:1017A0003148106001F5E8623048106001F244727F
:1017B0002F48106001F5E9622E48106001F24C726A
:1017C0002D48106001F5EE622C48136001F2B472EE
:1017D000106001F27C722A48106001F5F06229481D
:1017E000106001F5F4622848106001F2A4722748E5
:1017F000106001F5F5622648106001F2AC722548D0
:10180000106001F5F66201F5F761234810600B6086
:10181000BDE8F083B507214090F5D63D58A2F0BE53
:1018200081614B3D062E93BFC200F03F200B143D5B
:10183000EF6B1F3FCC36573DC96AA3BFB5163DC0FD
:1018400096E93CC01C341940B4F205BF79DA9EBE5B
:10185000A711D8BE139AA5BF22768CBE927B39C041
:10186000261939C0C75321404F371FBF85C2C3BF98
:101870006A0950BF373FEA3E653AB1BE93B0153FA3
:101880003F35AF3EE2BC87C0D39E91C0FAAB1CC2CD
:10189000945847C1B1EE3D4243F2A9BFB74AB84B95
:1018A000B848DFF880C42DE9F0430A60B64A4A60C0
:1018B000B64A8A60B64A0A61B64A8A61B64A0A627C
:1018C000B64A8A62B64A0A63B64A4A63B64A8A6325
:1018D000B64ACA63B64A0A64B64A4A64B64A8A64D1
:1018E000B64ACA64B64A0A65B64A4A65B64A8A65BD
:1018F000B64AC1F8F822B64AC1F80823B54ACB6007
:10190000C1F80C23B44BB54A4B61C1F81023B44B5A
:10191000B44ACB61C1F81423B34BB44A4B62C1F84B
:10192000182300234FF07E52B14CC865CB620B6682
:10193000C1F800238C67AF4CCC67AF4CC1F8804036
:10194000AE4CC1F88440AE4CC1F88840AD4CC1F8F3
:101950008C40AD4CC1F89040AC4CC1F89440AC4CBC
:10196000C1F89840AB4CC1F89C40AB4CC1F8A040CA
:10197000AA4CC1F8A440AA4CC1F8A840A94CC1F88F
:101980002043A94CC1F83043A84CC1F83443A84CBB
:10199000C1F83843A74CC1F83C43A74C4866886659
:1019A000C86608674867C1F84043A448A44CC1F81A
:1019B000F421C1F8AC00C1F82823C1F83422C1F8E1
:1019C000B400C1F8B800C1F8BC00C1F8B030C1F82B
:1019D000C000C1F8C8409B4CC1F8CC409A4CC1F83B
:1019E000D0409A4CC1F8D440994CC1F8D840994C99
:1019F000C1F8DC40984CC1F8E040984CC1F8E44094
:101A0000974CC1F8E840974CC1F8EC40964CC1F8AF
:101A1000F040964CC1F8F440954CC1F8F840954C14
:101A2000C1F84843944CC1F85843944CC1F85C4306
:101A3000934CC1F86043934CC1F86443924CC1F895
:101A40006843924CC1F8C400C1F818419048914CC9
:101A5000C1F8FC00C1F80401C1F80801C1F80C018B
:101A6000C1F81001C1F81401C1F81C418A488B4C1F
:101A7000C1F85023C1F87422C1F84C01C1F80031FB
:101A8000C1F82041864CC1F82441864CC1F8284158
:101A9000854CC1F82C41854CC1F83041844CC1F8CB
:101AA0003441844CC1F83841834CC1F83C41834CEB
:101AB000C1F84041824CC1F84441824CC1F84841D0
:101AC000814CC1F87043814CC1F88043804CC1F80F
:101AD0008443804CC1F888437F4CC1F88C437F4CD1
:101AE000C1F890437E4CC1F868417E4CC1F86C410E
:101AF0007D4CC1F870417D4CC1F874417C4CC1F8FB
:101B000078417C4CC1F87C417B4CC1F85401C1F850
:101B10005801C1F85C01C1F86001C1F86401C1F865
:101B200080417648764CC1F87823C1F8B422C1F8D8
:101B30009C01C1F85031C1F88441C1F8A401C1F839
:101B4000A801C1F8AC01C1F8B001C1F8B4016D48F9
:101B5000C1F8EC016C48C1F8B8016C48C1F8BC018F
:101B60006B4C6C48C1F88841C1F8C0016A4C6B48A5
:101B7000C1F88C41C1F8C401694CD5E062EEEC3F7C
:101B8000149EE93E1E8F5A3F4AD4E13F57869E3F3E
:101B9000290F813D1045E93D9D23623DD5B6F33DBA
:101BA0004884D33DB4FE7F3FD612673D46FF7F3F5A
:101BB000BB6D7D3DB584BE3EFDF8BA3D5314563D28
:101BC000E0A146BD5DFF7F3F115B403E40C0454107
:101BD000D78D063FE2A5BE3E71C9103FF6CD973DB9
:101BE000FA1BF43E52D7923E8859003FCA80A33F69
:101BF00071DA983FF5B6903F6A8C813F450DA5BCE0
:101C0000900C573DA74A473DBE92503D78CC9C3D35
:101C10002CA301BD2932FB3DB14A7DBDACDF8C391F
:101C200000A4943C8B6C3941DA2C733EDEE18D3E8E
:101C300006627B3EA1CBB53EDAD3AB3EB785413FD2
:101C40004770C04059D2B840864E284032DB053F2D
:101C50006D1F873EBA91A43EC5B8013FF154913E35
:101C60001CEA403F847B523F429E543C67BBD8BC39
:101C7000A1E8493FFDFA644013FC44413C5421C0B3
:101C8000C1C548BF7EC5323F19BD9D40500DCD40F6
:101C900054357F3FA0E3BF40655D7F3F11B61D40D7
:101CA0007EF3BE3ECE7FA63EE84FC43E7C0F0D3F86
:101CB000BF21FA3EBA40163F43A04E3F8262743EB7
:101CC000544C6A3E86765D3F3AABAE402CA39440BE
:101CD000373AE9C0CA7227BF1071074072A91E4186
:101CE000E46B5F3FB4A5503F3C9D813F709D1ABDA2
:101CF000E0251EBD4F81A4BD9ADAAA3C3E74313F57
:101D0000095C8F3DED624F3FD0170040ECAFB93F0B
:101D1000B14232BD525E733F0353E3BC54A8133E3D
:101D2000516642BD7E61443EBC48C1F89041C1F855
:101D3000C801BB4CBB48C1F89441C1F8CC01BA4CB6
:101D4000BA48C1F89841C1F8D001B94CB948C1F8B6
:101D50009843C1F8D401B84CB848C1F8A843C1F8B9
:101D6000D801B74CB748C1F8AC43C1F8DC01B64C58
:101D7000B648C1F8B043C1F8E001B54CB548C1F868
:101D8000B443C1F8E401B44CB448C1F8B843C1F855
:101D9000A023C1F8F422C1F8A031C1F8E801B0488D
:101DA000C1F82C02AF48C1F8F801AF48C1F8FC01F6
